:100000000C9446000C946C000C946C000C946C00E6
:100010000C946C000C946C000C949E050C946C0079
:100020000C946C000C946C000C946C000C94640B9D
:100030000C946C000C946C000C94C40A0C946C002E
:100040000C946C000C946C000C946C000C946C0080
:100050000C946C000C946C000C946C000C94860B4B
:100060000C946C000C946C0001067D06D505CB0544
:10007000D2055F065406E20CC60BC60BDF0CEB0C78
:10008000DB0CF20CEE0CF60CAF0C810C11241FBE35
:10009000CFEFD8E0DEBFCDBF14BE88E10FB6F89435
:1000A00080936000109260000FBE11E0A0E0B1E00C
:1000B000E0E5F1E202C005900D92A632B107D9F752
:1000C00021E0A6E2B1E001C01D92AE3BB207E1F72C
:1000D0000E94250E0C94A6100C9400008091B9018A
:1000E0009091BA01892BB1F5109219011092180163
:1000F00088E290E090930D0180930C0181E090E004
:1001000090933901809338019093350180933401A5
:1001100090933D0180933C0185E090E090932F0106
:1001200080932E0188E295E020E010924D0120930B
:10013000440120912601209345019093460180932C
:10014000470184E491E00E94890D90934F018093D0
:100150004E0108952091180190912E0180910C017B
:10016000E4CF80911801809344018091260180930F
:10017000450180912C018093460180910C01809370
:10018000470184E491E00E94890D90934F01809390
:100190004E0184E491E00895CF92DF92EF92FF92B6
:1001A000CF93DF93EC01CB01288130E03093330112
:1001B000209332010E94FD0790E090930F018093FD
:1001C0000E01853691050CF06EC04091830150916F
:1001D0008401609185017091860140935401509390
:1001E000550160935601709357012091320130916F
:1001F0003301E0911801F0911901E217F3070CF0B7
:1002000059C04091830150918401609185017091A2
:100210008601409358015093590160935A0170939D
:100220005B0110923F0110923E0131962E173F075D
:1002300009F4BAC08091B9019091BA01892B99F162
:1002400040918301509184016091850170918601F4
:100250008091580190915901A0915A01B0915B0190
:1002600080569F4FAF4FBF4F84179507A607B7071C
:10027000D0F481E090E0909327018093260125E05F
:1002800030E0309331012093300190933F0180930F
:100290003E0124E630E0309307012093060190935D
:1002A0003B0180933A01DF91CF91FF90EF90DF9077
:1002B000CF9008952E173F07B9F14091B9015091A1
:1002C000BA01452B81F3E21BF30B3297329708F406
:1002D0009FC040918301509184016091850170918C
:1002E000860140935C0150935D0160935E017093C1
:1002F0005F012F5F3F4F30931901209318012A812E
:1003000030E030932F0120932E0121E030E0309334
:1003100035012093340190930D0180930C013093AB
:100320003901209338018CCF2F3F310531F24B81B9
:1003300050E050930B0140930A0160910C017091C1
:100340000D01461757070CF075CF4091830150916E
:100350008401609185017091860140935C01509306
:100360005D0160935E0170935F012F5F3F4F30939B
:100370001901209318012A8130E030932F01209336
:100380002E0121E030E03093350120933401909329
:100390000D0180930C013093390120933801809135
:1003A000B9019091BA014ACF298130E030932701F9
:1003B000209326012A8130E03093310120933001CF
:1003C00041E050E05093370140933601243031052D
:1003D00009F448C020912A0130912B01A9014F5FF7
:1003E0005F4F50932B0140932A012130310559F082
:1003F000909307018093060181E090E090933B0188
:1004000080933A0117CF1092130110921201F0CF8E
:1004100040910C0150910D0184179507D4F4C090C0
:100420008301D0908401E0908501F0908601409195
:100430005C0150915D0160915E0170915F014058D7
:100440005F4F6F4F7F4F4C155D056E057F0508F4BC
:1004500040CF40910A0150910B01841795070CF48D
:1004600038CFEECE10922B0110922A01C1CF0E94FC
:100470001A0760E08091BD010C9415070E94750772
:10048000817090E008950E94750790E06FEF70E032
:100490000E943C0E882777FD8095982F0E94790F47
:1004A0000895809118019091190182309105C9F049
:1004B0003CF4009799F0019759F481E00C94400BBB
:1004C0008330910541F0049719F485E00C94400BBA
:1004D00081E10C94400B80E10C94400B85E10C947D
:1004E000400B84E00C94400B2091160130911701D1
:1004F0002817390771F09093170180931601009720
:1005000081F08130910589F082309105B1F0039737
:1005100009F008950E941A076091A90180E00C94E7
:10052000150760E080E00C9415070E941A0760919F
:10053000BC018091BB010C9415070E941A0760E072
:100540008091BD010C9415078091B9019091BA0179
:10055000892B51F140918301509184016091850173
:100560007091860180915C0190915D01A0915E0186
:10057000B0915F0180569F4FAF4FBF4F84179507D3
:10058000A607B70788F480911801909119018F3F51
:10059000910554F48FEF90E0909319018093180126
:1005A000109227011092260108958230910559F08A
:1005B0008330910559F08130910509F008950E942A
:1005C000750780FD03C083E090E0089582E090E02D
:1005D00008952091060130910701809104019091C6
:1005E0000501281739078CF520910201309103018C
:1005F0008091000190910101821793070CF467C06C
:1006000081E00E94400B8091100190911101909324
:10061000110180931001209116013091170182176A
:10062000930791F09093170180931601009709F4B6
:1006300078C08130910509F478C08230910509F4C1
:100640007CC0039709F45EC00895821793075CF19C
:1006500080913E0190913F01019709F475C020916E
:1006600002013091030180910001909101018217F4
:1006700093070CF04EC084E10E94400B8091100162
:10068000909111018230910559F08330910561F10B
:100690008130910509F0BBCF0E94750780FD24C011
:1006A00083E090E0B4CF8091120190911301892BE7
:1006B000F1F484E00E94400B81E090E090931301FC
:1006C000809312018091100190911101A0CF80E0E0
:1006D0000E94400B80911001909111018230910590
:1006E000F9F283309105A1F682E090E090CF80E1AD
:1006F0000E94400B80911001909111018230910570
:1007000021F6CECF0E941A076091A90180E00C94D7
:10071000150785E00E94400B809110019091110116
:1007200076CF60E080E00C9415070E941A07609174
:10073000BC018091BB010C9415070E941A0760E070
:100740008091BD010C94150781E090E060CFCF92BD
:10075000DF92EF92FF928091B9019091BA01892BBB
:1007600009F443C040918301509184016091850157
:100770007091860180915C0190915D01A0915E0174
:10078000B0915F0180569F4FAF4FBF4F84179507C1
:10079000A607B70750F580911801909119018F3F76
:1007A00091051CF58FEF90E090931901809318014B
:1007B000109227011092260185E090E090932D0180
:1007C00080932C018091160190911701892B09F4D7
:1007D00071C0109217011092160160E080E0FF9046
:1007E000EF90DF90CF900C941507809126019091A7
:1007F0002701019709F780912E0190912F018530F3
:100800009105D1F62091300130913101243031052C
:1008100099F220913E0130913F012130310509F4D8
:100820004EC080910C0190910D018B32910534F4F2
:1008300044E050E050932D0140932C01409106017B
:1008400050910701493251050CF4B6CF40912C016B
:1008500050912D014430510509F0B4CF40913A0137
:1008600050913B0141305105D1F16091830170916C
:10087000840180918501909186010E94770F6B0120
:100880007C016091500170915101809152019091D1
:1008900053010E94770F2AE939E949E151E40E94A6
:1008A0007A0E9B01AC01C701B6010E940510181613
:1008B0000CF488CFFF90EF90DF90CF900895409197
:1008C0000C0150910D01423351050CF077CF84E0BB
:1008D00090E090932D0180932C01CA01BFCF4091ED
:1008E0003801509139014130510509F0BECF409196
:1008F0003C0150913D01452B21F410923901109299
:100900003801232B21F410923B0110923A012091DF
:10091000060130910701280F391F309303012093FE
:1009200002010E94E9028091830190918401A091CB
:100930008501B09186018093500190935101A0935D
:100940005201B09353018091060190910701909359
:10095000050180930401809102019091030190931D
:10096000010180930001A6CF089580E090E00895F2
:100970000895DF92EF92FF920F931F93CF93DF932F
:10098000F89414B817B81AB815B818B81BB8529A12
:100990005A9A14BC85E085BD8FEF87BD22E0209375
:1009A0006E0010928000109281008FE89BE090937F
:1009B00089008093880020936F005398239881EAE0
:1009C0008093B0002093B1001092B4001092B30055
:1009D0008BE080BF83E080937F0086E080937C0083
:1009E00083E880937A0080917A00806480937A0013
:1009F00080917A0086FDFCCF10927C0083EA809380
:100A00007A0081E080937B0081E090E00E9490106A
:100A10008F3F11F08093660010928701C1E0C09370
:100A20006001C093A40110927E011092B80180E988
:100A300090E00E94901080937D0180917D018873E9
:100A400011F0C0937D011092A8011092A7018FEFC1
:100A500090E09093A6018093A501109283011092DB
:100A60008401109285011092860181E080934301F8
:100A700082E49FE09093B7018093B60180EB90E011
:100A80000E949010C82F81EB90E00E9490102C2FB4
:100A900030E0382B3093BA012093B90185E090E023
:100AA0000E9490108093BD0189E090E00E94901018
:100AB0008093A9018CE090E00E9490108093BB018C
:100AC00084E190E00E9490108093BC0158E8E52EEC
:100AD00051E0F52E01E611E0C0E2D0E0CE010E9427
:100AE0009010D82ECE0101960E9490102D2D30E04E
:100AF000322F2227282BF701219331937F01CE013A
:100B0000C0960E949010D82ECE01C1960E949010DF
:100B10002D2D30E0322F2227282BF80121933193FD
:100B20008F012296CC33D105C9F67894DF91CF910D
:100B30001F910F91FF90EF90DF9008951F920F92F9
:100B40000FB60F9211248F9388E10FB6F89480931B
:100B50006000109260000FBE8F910F900FBE0F903B
:100B60001F9018957C01EB01D12C88248A9464E0B5
:100B7000B62E76E0972EE3E8AE2E08E110E0F9E21B
:100B8000CF2EE0914301F0E0E730F105D0F7EC5CC7
:100B9000FF4F0C94500EDD2009F4FDC0B0924301CC
:100BA000DD24D394FE010995ECCF8091870181115A
:100BB000EBC0F89490927C00A0927A0080917A0029
:100BC000806480937A0080917A0086FDFCCF20912A
:100BD00078003091790078942B3A92E039070CF044
:100BE000EDC02938E2E03E070CF0EFC02736324076
:100BF0000CF4CAC0559A549A3B9A3A9A3D983C983C
:100C0000C0CFF89480B7877F80BF80917A008F77BC
:100C100080937A0014B817B81AB815B818B81BB86A
:100C20000FB6F894A895009360000FBEC0926000C4
:100C30008091600080648093600083B7817F8460CE
:100C400083BFF89483B7816083BF7894889583B716
:100C50008E7F83BF789410928701529A5A9A80911E
:100C60007A00806880937A0087E592E00197F1F737
:100C700000C0000080B7886180BF559A549A3B9AA3
:100C80003A9A3D9A3C9AEFE1FEE43197F1F700C0C1
:100C9000000080918701811181C0559854983B983C
:100CA0003A983D983C986DCF80914101811141C0A7
:100CB0001092B3001092B4001092420162CF489992
:100CC000ECCF559A54983B983A983D983C988FECC5
:100CD00097E00197F1F700C00000559854983B98B1
:100CE0003A983D983C989FEFE1EEF4E09150E04057
:100CF000F040E1F700C0000044CF559854983B9A6B
:100D00003A9A3D983C98EFECF7E03197F1F700C044
:100D10000000559854983B983A983D983C98FFEFBE
:100D200021EE84E0F15020408040E1F700C0000057
:100D300028CF9091410180914201981709F421CF69
:100D4000809141018093420180914101813009F4F9
:100D500050C0809141011092B3008092B400823063
:100D6000D9F18092B3008092B4008FE295E70197A9
:100D7000F1F700C000008091BC019091BB019093FD
:100D8000B3008093B400FDCE559A549A3B983A989C
:100D90003D983C98F6CEF701099500CF559A549AA4
:100DA0003B983A983D983C98FFEF20E782E0F1505D
:100DB00020408040E1F700C000006FCF5598549864
:100DC0003B9A3A9A3D983C98DCCE559854983B987B
:100DD0003A983D9A3C9AD5CEEFE2F5E73197F1F794
:100DE00000C000008091A9011092B3008093B4006C
:100DF000C8CE8092B3001092B4008FE295E70197BD
:100E0000F1F700C000008091BD018093B300109203
:100E1000B400B7CE07C0EFECF7E03197F1F700C0B0
:100E2000000001970097B9F708958093B30060938D
:100E3000B40008958FEF8093B3008093B4008FE0E7
:100E400090E0EFECF7E03197F1F700C00000019778
:100E50000097B9F708958091870181111EC0F89419
:100E600087E080937C0083E880937A0080917A0009
:100E7000806480937A0080917A0086FDFCCF809117
:100E800078009091790010927C0023EA20937A00F8
:100E900021E020937B00789408958FEF9FEF0895D1
:100EA0008091870181111EC0F89488EC80937C00AA
:100EB00087E880937A0080917A00806480937A003A
:100EC00080917A0086FDFCCF809178009091790026
:100ED00010927C0023EA20937A0021E020937B008B
:100EE000789408958FEF9FEF08951F93CF93DF932A
:100EF00060E070E080E013EAD1E0C6E0B3E8E1E052
:100F0000F0E020E830E0F894C0937C00B0937A00E1
:100F100090917A00906490937A0090917A0096FD77
:100F2000FCCF4091780050917900A42FA17090914E
:100F30007A00906490937A0090917A0096FDFCCFAD
:100F4000409178005091790010927C0010937A00C3
:100F5000D0937B0078944170A41305C021503109CF
:100F60002115310581F6AA2339F09F01062E01C013
:100F7000220F0A94EAF7822B6F5F7F4F683071056A
:100F800009F0BFCFDF91CF911F91089580911E018D
:100F9000982F990F990F990F98278091400121E080
:100FA000280F2093400186958695892792959695DE
:100FB0009770892780931E01089580931E010895DC
:100FC00080918701811116C0F89486E080937C009F
:100FD00083E880937A0080917A00806480937A001D
:100FE00080917A0086FDFCCF809178009091790005
:100FF000789408958FEF9FEF08952F923F924F922C
:101000005F926F927F928F929F92AF92BF92CF9298
:10101000DF92EF92FF920F931F93CF93DF9300D055
:1010200000D000D0CDB7DEB78C01DC0112960D9058
:10103000BC91A02DBE83AD83A438E3E0BE070CF0C5
:10104000CAC080916101909162018A179B0708F4E0
:10105000A9C160906301709064016A167B0608F470
:1010600027C260906501709066016A167B0608F4DD
:1010700028C260906701709068016A167B0608F4C8
:1010800029C26090690170906A016A167B0608F4B3
:101090002AC260906B0170906C016A167B0608F49E
:1010A0008BC160906D0170906E016A167B0608F42A
:1010B00023C260906F01709070016A167B0608F47D
:1010C00024C260907101709072016A167B0608F468
:1010D00025C260907301709074016A167B0608F453
:1010E00026C260907501709076016A167B0608F43E
:1010F00027C260907701709078016A167B0608F429
:101100002DC26090790170907A016A167B0608F40E
:101110002EC260907B0170907C016A167B0608F4F9
:101120002FC280E090E0A0EDB0E489839A83AB8386
:10113000BC838CE0E82EF12CF701EE0FFF1FEF5976
:10114000FE4F80819181B301681B790B80E090E0B4
:101150000E94770F9B01AC010E947A0E6B017C010B
:10116000AD81BE81BD01882777FD8095982F0E94B3
:10117000790F4B015C01B30180E090E00E94770F92
:101180002B013C0129813A814B815C81C701B60169
:101190000E9409109B01AC01C301B2010E94790EAB
:1011A0009B01AC01C501B4010E94790E20E030E042
:1011B00040E251E40E9409100E94460F5B01C70102
:1011C000B6010E94460FAB01BC01C501BA010E94E5
:1011D0003C0E762EE8C077247A94D801AD90BC906E
:1011E00080918801909189018A159B0508F46FC050
:1011F00000918A0110918B010A151B0508F45CC14E
:1012000000918C0110918D010A151B0508F45DC138
:1012100000918E0110918F010A151B0508F45EC123
:1012200000919001109191010A151B0508F45FC10E
:1012300000919201109193010A151B0508F4D8C082
:1012400000919401109195010A151B0508F458C1ED
:1012500000919601109197010A151B0508F459C1D8
:1012600000919801109199010A151B0508F45AC1C3
:1012700000919A0110919B010A151B0508F45BC1AE
:1012800000919C0110919D010A151B0508F45CC199
:1012900000919E0110919F010A151B0508F459C188
:1012A0000091A0011091A1010A151B0508F45AC173
:1012B0000091A2011091A3010A151B0508F45BC15E
:1012C0001AE5BFEF7B1207C081E2810F52C010E028
:1012D000BFEF7B16C9F3ED81FE81BF01882777FD43
:1012E0008095982F0E94790F6B017C01672D70E02B
:1012F00080E090E00E94770F4B015C01A70196010E
:1013000060E070E081E694E40E94790E9B01AC01FC
:10131000C501B4010E9409104B015C01612F70E00E
:1013200080E090E00E94770F2B013C0120E030E04C
:101330004FE254E4C701B6010E94790E9B01AC0153
:10134000C301B2010E9409109B01AC01C501B401A7
:101350000E947A0E20E030E048E453E40E94DE0E62
:1013600020E030E044E052E40E947A0E0E944B0FED
:10137000862F26960FB6F894DEBF0FBECDBFDF9145
:10138000CF911F910F91FF90EF90DF90CF90BF9082
:10139000AF909F908F907F906F905F904F903F9015
:1013A0002F900895712CED81FE81ED3BF2400CF001
:1013B00014CF81E2870DDDCF65E085E090E07C0110
:1013C000F1E0EF1AF10870E080E090E00E94770F02
:1013D00020E030E040E05FE30E94091020E030E0D0
:1013E000A9010E947A0E69837A838B839C83A4CEA1
:1013F00075E0672EE5E0F0E0EE0FFF1FEA57FE4FC5
:1014000080819181B801681B790B80E090E00E9497
:10141000770F9B01AC010E947A0E6B017C01B50134
:10142000882777FD8095982F0E94790F4B015C01EA
:10143000B80180E090E00E94770F1B012C01662D1F
:1014400070E080E090E00E94770F20E030E040E024
:101450005FE30E94091020E030E0A9010E947A0EAB
:10146000A70196010E9409109B01AC01C201B101C4
:101470000E94790E9B01AC01C501B4010E94790E56
:1014800020E030E040E251E40E9409100E94460F43
:101490008B01C701B6010E94460FAB01BC01C80118
:1014A000BA010E943C0E162F6F3F09F011CF81CF79
:1014B00061E081E090E083CF66246394E1E0F0E0B6
:1014C0009BCF62E082E090E07ACFA2E06A2EE2E079
:1014D000F0E092CF63E083E090E071CFF3E06F2E15
:1014E000E3E0F0E089CF64E084E090E068CFE4E0FE
:1014F0006E2EE4E0F0E080CF66E086E090E05FCF23
:1015000066E0662EE6E0F0E077CF67E087E090E007
:1015100056CF57E0652EE7E0F0E06ECF68E088E058
:1015200090E04DCF48E0642EE8E0F0E065CF69E060
:1015300089E090E044CF39E0632EE9E0F0E05CCF51
:101540006AE08AE090E03BCF2AE0622EEAE0F0E039
:1015500053CF9BE0692EEBE0F0E04ECF6BE08BE0E9
:1015600090E02DCF8CE0682EECE0F0E045CF6CE011
:101570008CE090E024CFBDE06B2EEDE0F0E03CCFBE
:101580006DE08DE090E01BCF1F920F920FB60F928F
:1015900011242F933F934F935F936F937F938F9378
:1015A0009F93AF93BF93EF93FF938091A701909187
:1015B000A8012091A5013091A601820F931F90935D
:1015C000A8018093A7018FEF90E09093A6018093EC
:1015D000A5018FEF87BD8091830190918401A09137
:1015E0008501B09186010196A11DB11D80938301F3
:1015F00090938401A0938501B09386018091870127
:1016000081110FC08091B6019091B7012091A7017F
:101610003091A8018217930720F480914301843010
:1016200089F0FF91EF91BF91AF919F918F917F9141
:101630006F915F914F913F912F910F900FBE0F903F
:101640001F901895E0912101F091220109950097D2
:1016500041F30E94A20D811109C00E944302992703
:101660009093A6018093A50187BDDBCFE0911F0178
:10167000F091200109951092A8011092A701D1CFF5
:1016800080FF11C0559A81FF11C0549A82FF11C08A
:101690003B9A83FF11C03A9A84FF11C03D9A85FDA1
:1016A00011C03C980895559881FDEFCF549882FD64
:1016B000EFCF3B9883FDEFCF3A9884FDEFCF3D9875
:1016C00085FFEFCF3C9A08951F920F920FB60F92AD
:1016D00011248F939F931092810010928500109295
:1016E000840081E0809360018093A40110928701BF
:1016F00010927C0093EA90937A0080937B009F91F4
:101700008F910F900FBE0F901F9018951F920F9200
:101710000FB60F9211242F933F934F935F936F93C4
:101720007F938F939F93AF93BF93CF93DF93EF9369
:10173000FF93209184003091850041E04093870120
:10174000809160018823A9F1109285001092840095
:10175000409381001092B801109260018091A40121
:101760008823A1F080917A0086FDFCCF80917800DB
:1017700090917900909382018093810181E0809320
:101780007C0093EA90937A0080937B00FF91EF9125
:10179000DF91CF91BF91AF919F918F917F916F9189
:1017A0005F914F913F912F910F900FBE0F901F901F
:1017B0001895C901875891098437994008F04FC09E
:1017C00026583109A4EFB0E00E94560EAA27BB2785
:1017D000883008F47BC0409360018091A40181119E
:1017E00052C080917E01E82FF0E0E655FE4F9091C7
:1017F000B80190838F5F80937E018C3039F6109210
:10180000810010928500109284004093A4011092F0
:101810008701C091B401D091B5018AEA91E00E949C
:10182000890DC817D90709F0B1CF8091B30187FF9F
:101830005EC098E7980F933030F053982398109239
:10184000B4001092B30090E0FC01E058F109EB30D5
:10185000F10508F09BCFE55CFF4F0C94500E109201
:1018600081001092850010928400409360014093A3
:10187000A4011092870110927C0083EA80937A0081
:1018800040937B0083CF80917A0086FDFCCF8091CE
:101890007800909179009093800180937F0110925D
:1018A0007C0083EA80937A0081E080937B009091B2
:1018B000B8019923B9F0109281001092850010921E
:1018C00084008093A4011092870160CF21E030E072
:1018D00001C0220F8A95EAF78091B801822B80938C
:1018E000B80154CF1092A40110927E014FCFE09125
:1018F0002301F09124016FE771E08AEA91E00995F4
:1019000045CF8091AA01823009F4DCC008F4B9C047
:10191000833009F4C5C0843009F0B0C08091410122
:101920009091B001833009F4E2C08091AF01109230
:10193000420123E0209341018093BB019093BC01BD
:1019400080914301863009F421CF539A239A109253
:10195000B4001092B30086E08093430117CF8091CA
:101960004301863099F0539A239A1092B400109252
:10197000B300559854983B983A983D983C981092EB
:1019800041011092420186E08093430181E090E0A2
:101990000090AA0102C0880F991F0A94E2F72091D3
:1019A000B9013091BA0182239323892B09F086C0B3
:1019B00010924101EBCE81E080934301E7CEE0E05D
:1019C000F0E0099580916E008D7F80936E0016BCCB
:1019D000E0E0F0E7099510924301D8CE82E08093D1
:1019E0004301D4CE85E080934301D0CE8091430162
:1019F000833009F4CBCE80914301843009F4C6CE04
:101A0000539A239A1092B4001092B30083E080930B
:101A10004301BCCE80914301863009F0B7CE60917E
:101A2000B90180EB90E00E9498106091BA0181EBBF
:101A300090E00E9498106091BD0185E090E00E94C6
:101A400098106091A90189E090E00E94981060913F
:101A5000BB018CE090E00E9498106091BC0184E191
:101A600090E00E949810539823981092B40010921E
:101A7000B30081E0809343018091AA01811160CF7E
:101A800085CE882339F28130C9F78091AB019091DE
:101A9000AC019093BA018093B9011092410150CFEB
:101AA00080914101823071F18091AE01109242012A
:101AB00092E0909341018093A90142CF81E080930D
:101AC000410164CE80914101813051F08091AD019E
:101AD0001092420191E0909341018093BD0130CF7B
:101AE0008091AD019091BD018913F2CF29CF8091F2
:101AF000BC0198131ACF8091AF012091BB018213D2
:101B000016CF1ECF8091AE019091A9018913CECF3F
:101B100017CFFC012AE08FEF9FEF31918327082E2A
:101B20008295807F8025092E982F82958F700826B8
:101B3000869598278927880F880F880F8025215040
:101B400061F708950FB6F894A4B120917D012A2B76
:101B500024B921E030917D01203029F0000025B129
:101B6000232B25B904C000000000000000C00000C5
:101B700000000000309525B1232325B92EEA2A95CF
:101B8000F1F72BEE30B735FF0AC0A4B930917D01D3
:101B9000309525B1232325B90FBE80E008950000BC
:101BA0002A9581F721E030917D01203029F0000055
:101BB00025B1232B25B904C000000000000000C09F
:101BC000000000000000309525B1232325B9000056
:101BD00024E52A95F1F7FC018CE0619170E0660F35
:101BE000771F616072609AE041E050E09A0126231D
:101BF0003723232B30917D01203029F0000025B1BF
:101C0000232B25B904C000000000000000C0000024
:101C100000000000309525B1232325B9000021E5FF
:101C20002A95F1F7440F551F9A9501F78A95A9F661
:101C300020B7206120BFA4B930917D01309525B136
:101C4000232325B90FBE81E008950E94B9048CECCE
:101C500090E0909324018093230181EB90E0909396
:101C600022018093210167EA73E08EE690E00E94F2
:101C7000B20580E090E0089597FB072E16F40094DB
:101C800007D077FD09D00E94650E07FC05D03EF411
:101C9000909581959F4F0895709561957F4F089518
:101CA000EE0FFF1F0590F491E02D0994A29FB00163
:101CB000B39FC001A39F700D811D1124911DB29F80
:101CC000700D811D1124911D0895AA1BBB1B51E1AC
:101CD00007C0AA1FBB1FA617B70710F0A61BB70B9C
:101CE000881F991F5A95A9F780959095BC01CD0141
:101CF00008955058BB27AA270ED04DC13ED130F0D1
:101D000043D120F031F49F3F11F41EF433C10EF49F
:101D1000E095E7FB29C1E92F4FD180F3BA1762079D
:101D200073078407950718F071F49EF567C10EF4E8
:101D3000E0950B2EBA2FA02D0B01B90190010C01DB
:101D4000CA01A0011124FF27591B99F0593F50F4F3
:101D5000503E68F11A16F040A22F232F342F44274B
:101D6000585FF3CF469537952795A795F040539543
:101D7000C9F77EF41F16BA0B620B730B840BBAF013
:101D80009150A1F0FF0FBB1F661F771F881FC2F77E
:101D90000EC0BA0F621F731F841F48F48795779592
:101DA0006795B795F7959E3F08F0B3CF9395880F49
:101DB00008F09927EE0F9795879508950CD0EBC002
:101DC000E3D040F0DAD030F021F45F3F19F0CCC01E
:101DD000511115C1CFC0F0D098F39923C9F3552301
:101DE000B1F3951B550BBB27AA276217730784070E
:101DF00038F09F5F5F4F220F331F441FAA1FA9F3C4
:101E000033D00E2E3AF0E0E830D091505040E695B5
:101E1000001CCAF729D0FE2F27D0660F771F881F16
:101E2000BB1F261737074807AB07B0E809F0BB0B05
:101E3000802DBF01FF2793585F4F2AF09E3F510529
:101E400068F092C0DCC05F3FECF3983EDCF386950F
:101E500077956795B795F7959F5FC9F7880F911D9F
:101E60009695879597F90895E1E0660F771F881F8B
:101E7000BB1F621773078407BA0720F0621B730B3E
:101E8000840BBA0BEE1F88F7E095089504D0689490
:101E9000B111B5C0089598D088F09F5790F0B92F30
:101EA0009927B751A0F0D1F0660F771F881F991FAF
:101EB0001AF0BA95C9F712C0B13081F09FD0B1E0E5
:101EC00008959CC0672F782F8827B85F39F0B93FF5
:101ED000CCF3869577956795B395D9F73EF49095B1
:101EE0008095709561957F4F8F4F9F4F0895E8942F
:101EF00009C097FB3EF490958095709561957F4F52
:101F00008F4F9F4F9923A9F0F92F96E9BB279395FF
:101F1000F695879577956795B795F111F8CFFAF40F
:101F2000BB0F11F460FF1BC06F5F7F4F8F4F9F4F40
:101F300016C0882311F096E911C0772321F09EE89E
:101F4000872F762F05C0662371F096E8862F70E004
:101F500060E02AF09A95660F771F881FDAF7880FDE
:101F60009695879597F9089597F99F6780E870E0AF
:101F700060E008959FEF80EC089500240A941616FF
:101F8000170618060906089500240A941216130667
:101F9000140605060895092E0394000C11F48823F5
:101FA00052F0BB0F40F4BF2B11F460FF04C06F5F11
:101FB0007F4F8F4F9F4F089557FD9058440F551FE7
:101FC00059F05F3F71F04795880F97FB991F61F0BB
:101FD0009F3F79F087950895121613061406551F32
:101FE000F2CF4695F1DF08C0161617061806991F9E
:101FF000F1CF86957105610508940895E894BB2793
:1020000066277727CB0197F9089566D008F48FEFFC
:1020100008950BD0C0CFB1DF28F0B6DF18F09523BC
:1020200009F0A2CFA7CF1124EACFC6DFA0F3959F76
:10203000D1F3950F50E0551F629FF001729FBB27AF
:10204000F00DB11D639FAA27F00DB11DAA1F649F5B
:102050006627B00DA11D661F829F2227B00DA11D0E
:10206000621F739FB00DA11D621F839FA00D611D94
:10207000221F749F3327A00D611D231F849F600DB5
:10208000211D822F762F6A2F11249F5750408AF0EE
:10209000E1F088234AF0EE0FFF1FBB1F661F771F7A
:1020A000881F91505040A9F79E3F510570F05CCFBA
:1020B000A6CF5F3FECF3983EDCF386957795679566
:1020C000B795F795E7959F5FC1F7FE2B880F911D98
:1020D0009695879597F90895990F0008550FAA0BC3
:1020E000E0E8FEEF16161706E807F907C0F012162B
:1020F0001306E407F50798F0621B730B840B950B2E
:1021000039F40A2661F0232B242B252B21F4089582
:102110000A2609F4A140A6958FEF811D811D08951F
:10212000F999FECF92BD81BDF89A992780B508959F
:10213000262FF999FECF1FBA92BD81BD20BD0FB6E3
:10214000F894FA9AF99A0FBE01960895F894FFCF81
:1021500064006400640064002A002A006400320005
:102160000100010001000100FF0001000100AAB808
:0621700004B504B40400F4
:00000001FF
