:100000000C9434000C945A000C945A000C945A002E
:100010000C945A000C945A000C94C3050C945A008A
:100020000C945A000C945A000C945A000C94EE094B
:100030000C945A000C945A000C943A0C0C945A00EC
:100040000C945A000C945A000C945A000C945A00C8
:100050000C945A000C945A000C945A000C94100AF8
:100060000C945A000C945A0011241FBECFEFD8E014
:10007000DEBFCDBF14BE88E10FB6F8948093600058
:10008000109260000FBE12E0A0E0B1E0E4E4F3E300
:1000900002C005900D92AC32B107D9F712E0ACE284
:1000A000B2E001C01D92A83CB107E1F70E948D00AB
:1000B0000C94A0190C9400008091C3029091C4028A
:1000C000892B51F120918D0230918E0240918F0247
:1000D000509190028091660290916702A09168020F
:1000E000B091690280569F4FAF4FBF4F8217930761
:1000F000A407B50788F480911001909111018F3FFA
:10010000910554F48FEF90E09093110180931001CA
:10011000109249021092480208950E94B20C84EA9B
:1001200090E090931B0180931A0183E092E09093FA
:100130001D0180931C0182E292E06EE774E00E9450
:10014000580F80E090E00895CF93DF93EC01CB014E
:10015000288120933C0210923D020E94F206E82F73
:10016000F0E0F0930101E0930001E536F1050CF0B9
:100170006FC080918D0290918E02A0918F02B091FC
:10018000900280935E0290935F02A0936002B0930E
:10019000610260913C0270913D022091100130910A
:1001A0001101261737070CF056C080918D029091EF
:1001B0008E02A0918F02B091900280936202909380
:1001C0006302A0936402B093650210923102109210
:1001D00030022F5F3F4F6217730709F478C0809198
:1001E000C3029091C402892B99F120918D02309124
:1001F0008E0240918F025091900280916202909104
:100200006302A0916402B091650280569F4FAF4F88
:10021000BF4F82179307A407B507D0F481E090E0A1
:10022000909349028093480225E030E030933F02EA
:1002300020933E02909331028093300224E630E016
:100240003093090120930801909335028093340282
:10025000DF91CF9108956217730709F464C080910C
:10026000C3029091C402892B99F3261B370B2250AD
:1002700030402230310508F497C080918D02909172
:100280008E02A0918F02B0919002809366029093AB
:100290006702A0936802B09369026F5F7F4F70930B
:1002A0001101609310018A818093400210924102F3
:1002B00081E090E090933B0280933A02F093030137
:1002C000E093020190933702809336028ECF8981AA
:1002D00080934802109249028A8190E090933F02F5
:1002E00080933E0221E030E03093390220933802BF
:1002F000049709F483C080914402909145020196CD
:1003000090934502809344020197019709F447C0F6
:10031000F0930901E093080181E090E090933502A9
:10032000809334025CCF6F3F710509F498CF8B81C5
:1003300090E0909305018093040120910201309197
:100340000301821793070CF04ACF80918D029091A0
:100350008E02A0918F02B0919002809366029093DA
:100360006702A0936802B09369026F5F7F4F70933A
:100370001101609310018A81809340021092410222
:1003800081E090E090933B0280933A02F093030166
:10039000E0930201909337028093360220CF1092AF
:1003A000170110921601B4CF8091020190910301C0
:1003B000E817F907D4F420918D0230918E02409114
:1003C0008F02509190028091660290916702A091F5
:1003D0006802B091690280589F4FAF4FBF4F82179C
:1003E0009307A407B50708F448CF809104019091C2
:1003F0000501E817F9070CF0F8CE3FCF109245023F
:100400001092440285CF0F931F930EE412E0809167
:10041000100180934E028091480280934F02809198
:100420004202809350028091020180935102C801E0
:100430000E94D5109093590280935802C8011F91D1
:100440000F9108958091C3029091C402892BF1F419
:10045000109211011092100188E290E09093030134
:100460008093020181E090E09093370280933602FE
:1004700090933B0280933A0290933302809332022E
:1004800085E090E0909341028093400210922D020B
:1004900010922C02209108013091090180910A01EB
:1004A00090910B012817390781F110922F021092B9
:1004B0002E0220910C0130910D0180910E0190913E
:1004C0000F018217930734F081E090E090932F02A0
:1004D00080932E02109257028091100180934E0259
:1004E0008091480280934F02809140028093500295
:1004F00080910201809351028EE492E00E94D51017
:100500009093590280935802089581E090E090936F
:100510002D0280932C02C9CF9C01809112019091F1
:1005200013018217930781F0309313012093120176
:100530002115310551F02130310561F022303105AE
:10054000D1F02330310579F0089580E060E00E9419
:10055000E10508950E94E6058091C5026091C602FA
:100560000E94E10508950E94E60580E06091B302D3
:100570000E94E10508950E94E6058091C70260E0AF
:100580000E94E1050895809110019091110182303F
:100590009105E1F0833091054CF083309105D1F065
:1005A000049781F081E10E94CA090895009731F013
:1005B0000197C1F781E00E94CA09089585E10E9470
:1005C000CA09089585E00E94CA09089584E00E943E
:1005D000CA09089580E10E94CA0908950E94680628
:1005E00090E06FEF70E00E942C19882777FD8095CE
:1005F000982F0E94ED1508950E946806282F30E07C
:1006000021703070C90108958230910569F08330FE
:10061000910571F08130910519F09C01C90108958F
:100620000E94680680FD04C023E030E0C9010895FF
:1006300022E030E0C901089520911801309119019C
:10064000609108017091090140910A0150910B01DC
:10065000641775074CF5A0910C01B0910D01E09164
:100660000E01F0910F01EA17FB070CF05AC08091C0
:100670002E0290912F02019709F0ABC010922D022B
:1006800010922C026417750734F481E090E0909387
:100690002D0280932C0210922F0210922E02EA1744
:1006A000FB070CF048C08EC06417750709F467C0DB
:1006B000461757070CF03FC0A0910C01B0910D01F7
:1006C000E0910E01F0910F01EA17FB070CF496C0C0
:1006D00080912C0290912D020197A1F0C9010E94F6
:1006E00004039C01609108017091090140910A0185
:1006F00050910B01A0910C01B0910D01E0910E0100
:10070000F0910F0110922D0210922C0246175707FC
:100710000CF050C081E090E090932D0280932C0269
:1007200049C081E090E090932D0280932C02909339
:100730002F0280932E02309319012093180180918B
:100740001201909113012817390799F03093130182
:10075000209312012115310569F02130310509F48A
:10076000A7C02230310509F4ACC02330310509F4AB
:100770006EC0089580E060E00E94E1050895A091B8
:100780000C01B0910D01E0910E01F0910F01EA17FB
:10079000FB070CF464C080912C0290912D02892BF0
:1007A00009F497C010922D0210922C02641775075D
:1007B00009F4B0CF10922F0210922E02EA17FB0715
:1007C0000CF4B9CF81E090E090932F0280932E0239
:1007D000B2CFC9010E9404039C016091080170918D
:1007E000090140910A0150910B01A0910C01B091B7
:1007F0000D01E0910E01F0910F0140CF80912C028C
:1008000090912D02892B31F080912E0290912F0230
:10081000892BA1F4C9010E9404039C016091080185
:100820007091090140910A0150910B01A0910C01B6
:10083000B0910D01E0910E01F0910F0110922D0287
:1008400010922C02461757070CF025CF1ECF0E949E
:10085000E60580E06091B3020E94E1050895809171
:100860002C0290912D02892B31F080912E029091D3
:100870002F020197A1F0C9010E9404039C0160911D
:1008800008017091090140910A0150910B01A0915A
:100890000C01B0910D01E0910E01F0910F01109249
:1008A0002D0210922C026417750709F0F4CEEDCEDC
:1008B0000E94E6058091C5026091C6020E94E10592
:1008C00008950E94E6058091C70260E00E94E1055C
:1008D0000895C9010E9404039C0160910801709170
:1008E000090140910A0150910B01A0910C01B091B6
:1008F0000D01E0910E01F0910F0154CFEF92FF92A4
:100900000F931F938091C3029091C402892B09F425
:1009100043C020918D0230918E0240918F02509100
:1009200090028091660290916702A0916802B09156
:10093000690280569F4FAF4FBF4F82179307A4079E
:10094000B50750F580911001909111018F3F9105ED
:100950001CF58FEF90E0909311018093100110929D
:1009600049021092480285E090E090934302809300
:1009700042028091120190911301892B41F0109253
:1009800013011092120180E060E00E94E1051F91C6
:100990000F91FF90EF900895809148029091490245
:1009A000019709F72091400230914102253031052D
:1009B000D1F680913E0290913F020497A1F260919E
:1009C0003002709131026130710509F451C04091DB
:1009D0000201509103014B32510534F484E090E060
:1009E0009093430280934202809108019091090103
:1009F00089979CF18091420290914302049799F566
:100A00008091340290913502019709F447C06091BA
:100A10008D0270918E0280918F02909190020E94BF
:100A20009F167B018C0160915A0270915B0280914C
:100A30005C0290915D020E949F162AE939E949E122
:100A400051E40E94BA139B01AC01C801B7010E9496
:100A50008D1518160CF09BCF06C085E090E09093A2
:100A600043028093420280E090E00E948C028FCF8C
:100A700040910201509103014B32510544F0423341
:100A800051052CF03093430220934202ECCF84E0D6
:100A900090E09093430280934202B2CF809136025D
:100AA00090913702019709F0B2CF80913202909174
:100AB0003302892B21F41092370210923602672BF1
:100AC00021F4109235021092340280910801909125
:100AD0000901480F591F50930D0140930C010E94CA
:100AE0001C0380918D0290918E02A0918F02B09193
:100AF000900280935A0290935B02A0935C02B093A1
:100B00005D028091160190911701892B01F12091CE
:100B100008013091090180910A0190910B01281779
:100B2000390724F430930B0120930A0120910C0122
:100B300030910D0180910E0190910F012817390716
:100B40000CF025CF30930F0120930E0120CF81E0D0
:100B500090E0909317018093160180910801909185
:100B6000090190930B0180930A0180910C019091EF
:100B70000D0190930F0180930E0109CF089580E03D
:100B800090E0089508951F920F920FB60F921124CE
:100B90008F9388E10FB6F894809360001092600004
:100BA0000FBE8F910F900FBE0F901F90189500975A
:100BB00039F020ED37E0F9013197F1F70197D9F7D6
:100BC00008958093B3006093B40008958FEF8093ED
:100BD000B3008093B40080ED97E0FC013197F1F70A
:100BE000FC013197F1F7FC013197F1F7FC013197E6
:100BF000F1F7FC013197F1F7FC013197F1F7FC01B6
:100C00003197F1F7FC013197F1F7FC013197F1F7DA
:100C1000FC013197F1F7FC013197F1F7FC013197B5
:100C2000F1F7FC013197F1F7FC013197F1F70197EA
:100C3000F1F70895809191028823F9F4F89487E000
:100C400080937C0083E880937A0080917A008064AE
:100C500080937A0080917A0086FDFCCF2091780005
:100C60003091790010927C0083EA80937A0081E0D1
:100C700080937B007894C90108952FEF3FEFC9015D
:100C80000895809191028823F9F4F89488EC809378
:100C90007C0087E880937A0080917A00806480935A
:100CA0007A0080917A0086FDFCCF20917800309107
:100CB000790010927C0083EA80937A0081E080932F
:100CC0007B007894C90108952FEF3FEFC901089583
:100CD000CF93DF93B0E060E070E0F3EAA1E056E08C
:100CE000E3E8C1E0D0E020E030E0F89450937C00ED
:100CF000E0937A0080917A00806480937A008091FA
:100D00007A0086FDFCCF8091780090917900482F81
:100D1000417080917A00806480937A0080917A009B
:100D200086FDFCCF809178009091790010927C0034
:100D3000F0937A00A0937B0078948170481729F48F
:100D40002F5F3F4F2038310581F6442341F0CE011B
:100D5000062E02C0880F991F0A94E2F7B82B6F5F26
:100D60007F4F6830710509F0BECF8B2FDF91CF9197
:100D7000089580912201982F990F990F990F982724
:100D800020914C02822F869586958927929596957B
:100D900097708927809322012F5F20934C0208953A
:100DA000809322010895809191028823B9F4F894E8
:100DB00086E080937C0083E880937A0080917A00BB
:100DC000806480937A0080917A0086FDFCCF209128
:100DD0007800309179007894C90108952FEF3FEFA2
:100DE000C90108952F923F924F925F926F927F9226
:100DF0008F929F92AF92BF92CF92DF92EF92FF922B
:100E00000F931F93DF93CF9300D000D00F92CDB7F5
:100E1000DEB71C01DC0112964D905C901397B4E88C
:100E20004B16B3E05B060CF49DC0EFEFED83BDEB1A
:100E30004B16B2E05B06D4F48D818F5D0F900F905E
:100E40000F900F900F90CF91DF911F910F91FF9016
:100E5000EF90DF90CF90BF90AF909F908F907F905A
:100E60006F905F904F903F902F900895F101008117
:100E7000118180919202909193028017910708F45A
:100E800043C1E0909402F0909502E016F10608F458
:100E900015C2E0909602F0909702E016F10608F471
:100EA00016C2E0909802F0909902E016F10608F45C
:100EB00017C2E0909A02F0909B02E016F10608F447
:100EC00018C2E0909C02F0909D02E016F10608F432
:100ED0006EC1E0909E02F0909F02E016F10608F4C9
:100EE00011C2E090A002F090A102E016F10608F411
:100EF00012C2E090A202F090A302E016F10608F4FC
:100F000013C2E090A402F090A502E016F10608F4E6
:100F100014C2E090A602F090A702E016F10608F4D1
:100F200015C2E090A802F090A902E016F10608F4BC
:100F30001AC2E090AA02F090AB02E016F10608F4A3
:100F40001BC2E090AC02F090AD02E016F10608F48E
:100F50001CC28AE5382E2D812F3F09F0DAC0832D7F
:100F60008F5D6CCF80916B0290916C02841595051A
:100F700008F4C8C0E0906D02F0906E02E414F5042D
:100F800008F4A1C1E0906F02F0907002E414F5043F
:100F900008F4A2C1E0907102F0907202E414F5042A
:100FA00008F4A3C1E0907302F0907402E414F50415
:100FB00008F4A4C1E0907502F0907602E414F50400
:100FC00008F460C1E0907702F0907802E414F50430
:100FD00008F49DC1E0907902F0907A02E414F504DF
:100FE00008F49EC1E0907B02F0907C02E414F504CA
:100FF00008F49FC1E0907D02F0907E02E414F504B5
:1010000008F4A0C1E0907F02F0908002E414F5049F
:1010100008F4A1C1E0908102F0908202E414F5048A
:1010200008F49DC1E0908302F0908402E414F5047A
:1010300008F49EC1E0908502F0908602E414F50465
:1010400008F49FC10CE010E080E090E0A0EDB0E477
:1010500089839A83AB83BC83000F111F05591D4FF1
:10106000D8018D919C91B701681B790B80E090E0CD
:101070000E949F169B01AC010E94BA133B014C01D8
:10108000B201882777FD8095982F0E94ED155B01AE
:101090006C01B70180E090E00E949F167B018C01FB
:1010A000C401B30129813A814B815C810E94E7131D
:1010B0009B01AC01C801B7010E9489139B01AC01DF
:1010C000C601B5010E94891320E030E040E251E4FE
:1010D0000E94E7130E944B167B018C01C401B301EF
:1010E0000E944B169B01AC01C701B9010E942C194B
:1010F000882777FD8095982F0E94ED150E94111288
:101100006D8395CE1D8293CE33242D812F3F09F41C
:1011100026CFB201882777FD8095982F0E94ED1584
:101120005B016C01AD816A2F70E080E090E00E946D
:101130009F167B018C0160E070E081E694E4A601DB
:1011400095010E9489139B01AC01C801B7010E945F
:10115000E7133B014C01632D70E080E090E00E94BA
:101160009F167B018C01C601B50120E030E04FE203
:1011700054E40E9489139B01AC01C801B7010E948D
:10118000E7139B01AC01C401B3010E94BA1320E034
:1011900030E048E453E40E94E11420E030E044E011
:1011A00052E40E94BA130E941112862F47CEA5E086
:1011B0003A2EE5E0F0E0EE0FFF1FE057FD4F808193
:1011C0009181B701681B790B80E090E00E949F1627
:1011D0009B01AC010E94BA133B014C01B801882766
:1011E00077FD8095982F0E94ED155B016C01B7018A
:1011F00080E090E00E949F167B018C01632D70E0DF
:1012000080E090E00E949F1620E030E040E05FE345
:101210000E94E71320E030E040E050E00E94BA1363
:10122000A40193010E94E7139B01AC01C801B7011F
:101230000E9489139B01AC01C601B5010E9489136C
:1012400020E030E040E251E40E94E7130E944B1698
:101250007B018C01C401B3010E944B169B01AC01C0
:10126000C701B9010E942C19882777FD8095982F16
:101270000E94ED150E941112362EFFEF6F1709F034
:1012800044CFDACD85E090E065E08C01015010405C
:1012900070E080E090E00E949F1620E030E040E0A7
:1012A0005FE30E94E71320E030E040E050E00E945E
:1012B000BA1369837A838B839C83CECE3324339491
:1012C000E1E0F0E078CF81E090E061E0DECF92E015
:1012D000392EE2E0F0E06FCF82E090E062E0D5CF1F
:1012E00083E0382EE3E0F0E066CF83E090E063E057
:1012F000CCCFB4E03B2EE4E0F0E05DCF84E090E0C2
:1013000064E0C3CFF6E03F2EE6E0F0E054CF86E0A5
:1013100090E066E0BACFE7E03E2EE7E0F0E04BCFAA
:1013200087E090E067E0B1CF78E0372EE8E0F0E0CA
:1013300042CF88E090E068E0A8CF69E0362EE9E08F
:10134000F0E039CF89E090E069E09FCF5AE0352E98
:10135000EAE0F0E030CF8AE090E06AE096CF8BE000
:1013600090E06BE092CF4BE0342EEBE0F0E023CF47
:101370008CE090E06CE089CF3CE0332EECE0F0E0D4
:101380001ACF8DE090E06DE080CF2DE0322EEDE0C1
:10139000F0E011CF80FF11C0559A81FF11C0549A1F
:1013A00082FF11C03B9A83FF11C03A9A84FF11C09B
:1013B0003D9A85FD11C03C980895559881FDEFCF69
:1013C000549882FDEFCF3B9883FDEFCF3A9884FD90
:1013D000EFCF3D9885FFEFCF3C9A08951F920F9273
:1013E0000FB60F9211248F939F9310928100109249
:1013F00085001092840091E090936A029093AE026F
:101400001092910210927C0083EA80937A0090936C
:101410007B009F918F910F900FBE0F901F9018959A
:101420001F920F920FB60F9211240F931F932F93B9
:101430003F934F935F936F937F938F939F93AF935C
:10144000BF93EF93FF93609184007091850001E05A
:101450000093910280916A028823A9F1109285007D
:1014600010928400009381001092C20210926A02CE
:101470008091AE028823A1F080917A0086FDFCCF96
:10148000809178009091790090938C0280938B02E8
:1014900091E090937C0083EA80937A0090937B00A4
:1014A000FF91EF91BF91AF919F918F917F916F913C
:1014B0005F914F913F912F911F910F910F900FBE10
:1014C0000F901F901895CB018758904084579940F2
:1014D00008F066C06658704080E090E024EF30E08D
:1014E00040E050E00E940D19BC0188279927683020
:1014F00008F48DC000936A028091AE02882309F03F
:1015000063C080918802E0912001F0912101E80FF1
:10151000F11D8091C2028083809188028F5F809349
:1015200088028C3009F0BCCF1092810010928500A7
:10153000109284000093AE02109291020091BE02BC
:101540001091BF0284EB92E00E94D5100817190792
:1015500009F0A6CF9091BD0297FF6BC0892F8858E4
:10156000833030F0539823981092B4001092B30057
:10157000963809F4D2C0973808F065C0933809F45A
:10158000D0C0943808F068C0903809F089CF8091B5
:101590006E008D7F80936E0016BCE0E0F0E7099549
:1015A00010928100109285001092840000936A02CC
:1015B0000093AE021092910210927C0083EA809315
:1015C0007A0000937B006CCF80917A0086FDFCCF7F
:1015D000809178009091790090938A02809389029B
:1015E00010927C0083EA80937A0091E090937B00D4
:1015F0008091C2028823C1F0109281001092850070
:10160000109284009093AE021092910249CF81E033
:1016100090E002C0880F991F6A95E2F72091C202FC
:10162000282B2093C2023CCF1092AE021092880267
:1016300037CFE0911A01F0911B0184EB92E069E849
:1016400072E009952DCF983809F46EC0983870F47F
:1016500082E080934D0224CF943809F479C0953804
:1016600009F01ECF81E080934D021ACF993809F41A
:1016700098C09A3809F014CF8091B402823009F4EE
:10168000BEC0833008F074C0882309F064C0809124
:101690004D02863009F004CF80EB90E06091C302E8
:1016A0000E9492196091C40281EB90E00E9492190D
:1016B00085E090E06091C7020E94921989E090E075
:1016C0006091B3020E9492198CE090E06091C50293
:1016D0000E94921984E190E06091C6020E949219E2
:1016E000539823981092B4001092B30081E0809335
:1016F0004D028091B402882309F4D2CE80914D022C
:10170000863009F4CDCE539A239A1092B4001092E9
:10171000B30086E080934D02C3CE85E080934D02F6
:10172000BFCEE0E0F0E0099580914D02833009F4EE
:10173000B7CE80914D02843009F4B2CE539A239AE9
:101740001092B4001092B30083E080934D02A8CEB3
:1017500010924D02A5CE813071F68091B502909124
:10176000B6029093C4028093C30210924A02C6CF7D
:10177000833009F45BC0843009F0BDCF80914A0208
:10178000833009F44AC02091BA029091B9021092B4
:101790004B0283E080934A029093C5022093C602D5
:1017A000ADCF80914D02863091F0539A239A1092DA
:1017B000B4001092B30080E00E94CA0910924A025D
:1017C00080914A0280934B0286E080934D0281E033
:1017D00090E00090B40202C0880F991F0A94E2F7CB
:1017E0002091C3023091C40282239323892B19F4E0
:1017F00010924A0255CE81E080934A0251CE8091E8
:101800004A02813009F19091B70210924B0281E0B7
:1018100080934A029093C70271CF2091BA028091BF
:10182000C6022817C1F09091B902B1CF80914A0247
:101830008230C9F09091B80210924B0282E08093FE
:101840004A029093B3025ACF9091B7028091C70297
:101850009817D9F653CF9091B9028091C502981785
:1018600009F095CF4BCF9091B8028091B3029817B1
:1018700019F744CF1F920F920FB60F9211242F9396
:101880003F934F935F936F937F938F939F93AF9308
:10189000BF93EF93FF932091AF023091B0028091FC
:1018A000B1029091B202280F391F3093B2022093F7
:1018B000B1028FEF90E09093B0028093AF028FEF70
:1018C00087BD80918D0290918E02A0918F02B09180
:1018D00090020196A11DB11D80938D0290938E02FE
:1018E000A0938F02B093900280919102882359F4C3
:1018F0008091C0029091C1028217930720F48091D9
:101900004D02843089F0FF91EF91BF91AF919F918B
:101910008F917F916F915F914F913F912F910F9098
:101920000FBE0F901F901895E0911C01F0911D01C2
:101930000995009741F30E948E11882349F40E9473
:10194000EE0290E09093B0028093AF0287BDDBCFB0
:10195000E0911E01F0911F0109951092B2021092C0
:10196000B102D1CF0F931F93F89414B817B81AB8D7
:1019700015B818B81BB8529A5A9A14BC85E085BDA0
:101980008FEF87BD22E020936E00109280001092AE
:1019900081008FE89BE090938900809388002093DA
:1019A0006F005398239881EA8093B0002093B10090
:1019B0001092B4001092B3008BE080BF83E080935C
:1019C0007F0086E080937C0083E880937A0080919A
:1019D0007A00806480937A0080917A0086FDFCCF43
:1019E00010927C0083EA80937A0081E080937B00F0
:1019F00081E090E00E948A198F3F11F08093660089
:101A00001092910211E010936A021093AE021092AC
:101A100088021092C20280E990E00E948A198093A5
:101A2000870280918702887311F0109387021092C9
:101A3000B2021092B1028FEF90E09093B0028093C7
:101A4000AF0210928D0210928E0210928F021092AD
:101A5000900281E080934D0282E49FE09093C10266
:101A60008093C00280EB90E00E948A19082F81EBDE
:101A700090E00E948A19382F20E010E0202B312BB3
:101A80003093C4022093C30285E090E00E948A193B
:101A90008093C70289E090E00E948A198093B30284
:101AA0008CE090E00E948A198093C50284E190E066
:101AB0000E948A198093C60280E290E00E948A19EF
:101AC000182F81E290E00E948A19312F20E090E0E7
:101AD000282B392B309393022093920280E590E0DB
:101AE0000E948A19182F81E590E00E948A19312FEF
:101AF00020E090E0282B392B30936C0220936B026E
:101B000082E290E00E948A19182F83E290E00E94FE
:101B10008A19312F20E090E0282B392B3093950241
:101B20002093940282E590E00E948A19182F83E5A1
:101B300090E00E948A19312F20E090E0282B392B69
:101B400030936E0220936D0284E290E00E948A1925
:101B5000182F85E290E00E948A19312F20E090E052
:101B6000282B392B309397022093960284E590E03E
:101B70000E948A19182F85E590E00E948A19312F5A
:101B800020E090E0282B392B3093700220936F02D5
:101B900086E290E00E948A19182F87E290E00E9466
:101BA0008A19312F20E090E0282B392B30939902AD
:101BB0002093980286E590E00E948A19182F87E505
:101BC00090E00E948A19312F20E090E0282B392BD9
:101BD000309372022093710288E290E00E948A1989
:101BE000182F89E290E00E948A19312F20E090E0BE
:101BF000282B392B30939B0220939A0288E590E0A2
:101C00000E948A19182F89E590E00E948A19312FC5
:101C100020E090E0282B392B30937402209373023C
:101C20008AE290E00E948A19182F8BE290E00E94CD
:101C30008A19312F20E090E0282B392B30939D0218
:101C400020939C028AE590E00E948A19182F8BE568
:101C500090E00E948A19312F20E090E0282B392B48
:101C600030937602209375028CE290E00E948A19EC
:101C7000182F8DE290E00E948A19312F20E090E029
:101C8000282B392B30939F0220939E028CE590E005
:101C90000E948A19182F8DE590E00E948A19312F31
:101CA00020E090E0282B392B3093780220937702A4
:101CB0008EE290E00E948A19182F8FE290E00E9435
:101CC0008A19312F20E090E0282B392B3093A10284
:101CD0002093A0028EE590E00E948A19182F8FE5CC
:101CE00090E00E948A19312F20E090E0282B392BB8
:101CF00030937A022093790280E390E00E948A195F
:101D0000182F81E390E00E948A19312F20E090E0A3
:101D1000282B392B3093A3022093A20280E690E077
:101D20000E948A19182F81E690E00E948A19312FAB
:101D300020E090E0282B392B30937C0220937B020B
:101D400082E390E00E948A19182F83E390E00E94BA
:101D50008A19312F20E090E0282B392B3093A502EF
:101D60002093A40282E690E00E948A19182F83E64D
:101D700090E00E948A19312F20E090E0282B392B27
:101D800030937E0220937D0284E390E00E948A19C2
:101D9000182F85E390E00E948A19312F20E090E00F
:101DA000282B392B3093A7022093A60284E690E0DB
:101DB0000E948A19182F85E690E00E948A19312F17
:101DC00020E090E0282B392B3093800220937F0273
:101DD00086E390E00E948A19182F87E390E00E9422
:101DE0008A19312F20E090E0282B392B3093A9025B
:101DF0002093A80286E690E00E948A19182F87E6B1
:101E000090E00E948A19312F20E090E0282B392B96
:101E1000309382022093810288E390E00E948A1925
:101E2000182F89E390E00E948A19312F20E090E07A
:101E3000282B392B3093AB022093AA0288E690E03E
:101E40000E948A19182F89E690E00E948A19312F82
:101E500020E090E0282B392B3093840220938302DA
:101E60008AE390E00E948A19182F8BE390E00E9489
:101E70008A19312F20E090E0282B392B3093AD02C6
:101E80002093AC028AE690E00E948A19182F8BE614
:101E900090E00E948A19312F20E090E0282B392B06
:101EA000309386022093850278941F910F910895B4
:101EB0002F923F924F925F926F927F928F929F925A
:101EC000AF92BF92CF92DF92EF92FF920F931F9348
:101ED000CF93DF936C018B01FF24A0EDAA2EA7E026
:101EE000BA2EC8ECD0E0EE24EA94F0E38F2EF5E7AA
:101EF0009F2EE6E07E2E73E8672E68E1462E512C79
:101F000059E2352E44E0242E80914D02833079F140
:101F10008430B8F5813009F4CBC0823008F461C058
:101F200080919102882309F008C1F89470927C0096
:101F300060927A0080917A00806480937A00809128
:101F40007A0086FDFCCF209178003091790078945A
:101F500042E02B3A34070CF4F7C0559854983B9A5A
:101F60003A9A3D983C9880914D02833089F6FF2043
:101F700009F4E0C020924D02FF24F394F801099582
:101F8000C3CF853089F08530C8F3863009F0BCCFE7
:101F900080914A02882309F0A6C01092B3001092E3
:101FA000B40010924B02B0CF489963C0559A549830
:101FB0003B983A983D983C98C5010197F1F75598A0
:101FC00054983B983A983D983C9820E030E0CE01F8
:101FD0000197F1F72F5F3F4F87E0203D3807B9F7B2
:101FE00093CFF89480B7877F80BF80917A008F77F6
:101FF00080937A0014B817B81AB815B818B81BB877
:102000000FB6F894A895409260000FBE3092600021
:102010008091600080648093600083B7817F8460DA
:1020200083BFF89483B7816083BF7894889583B722
:102030008E7F83BF789410929102529A5A9A80911F
:102040007A00806880937A0088E592E00197F1F742
:1020500080B7886180BF559A549A3B9A3A9A3D9AC4
:102060003C9A80E29EE40197F1F7809191028823E7
:1020700039F4559854983B983A983D983C9844CFF9
:10208000559A549A3B983A983D983C9820E030E015
:10209000CE010197F1F72F5F3F4F43E0283E340711
:1020A000B9F7559854983B983A983D983C982CCF5E
:1020B000559854983B9A3A9A3D983C98C501019797
:1020C000F1F7559854983B983A983D983C9820E001
:1020D00030E0CE010197F1F72F5F3F4F87E0203DC1
:1020E0003807B9F711CF90914A0280914B029817A7
:1020F00009F40ACF80914A0280934B0280914A02F0
:10210000813069F180914A028230B9F11092B300B6
:10211000E092B400E092B300E092B400C4010197F1
:10212000F1F78091C5029091C6028093B30090931D
:10213000B400EACEF60109951DCF559A549A3B9802
:102140003A983D983C98E0CE82E0293838071CF157
:10215000559854983B983A983D9A3C9AD5CEE0923F
:10216000B3001092B400C4010197F1F78091C70247
:102170008093B3001092B400C7CE1092B300E092E7
:10218000B400C4010197F1F78091B3021092B3003B
:102190008093B400B9CE275632407CF2559A549AB7
:1021A0003B9A3A9A3D983C98AFCEFC0180812FEF44
:1021B0003FEF2827022E2295207F2025032E322F45
:1021C00022952F700226269532272327220F220FD1
:1021D000220F202581812827022E2295207F20256D
:1021E000032E322F22952F70022626953227232781
:1021F000220F220F220F202582812827022E2295CE
:10220000207F2025032E322F22952F70022626951F
:1022100032272327220F220F220F202583812827F0
:10222000022E2295207F2025032E322F22952F70FB
:102230000226269532272327220F220F220F202540
:1022400084812827022E2295207F2025032E322FDD
:1022500022952F700226269532272327220F220F40
:10226000220F202585812827022E2295207F2025D8
:10227000032E322F22952F700226269532272327F0
:10228000220F220F220F202586812827022E229539
:10229000207F2025032E322F22952F70022626958F
:1022A00032272327220F220F220F2025878128275C
:1022B000022E2295207F2025032E322F22952F706B
:1022C0000226269532272327220F220F220F2025B0
:1022D00080852827022E2295207F2025032E322F4D
:1022E00022952F700226269532272327220F220FB0
:1022F000220F202581852827022E2295207F202548
:10230000032E322F22952F7002262695322723275F
:10231000220F220F220F2025C90108950FB6F8942D
:10232000A4B1209187022A2B24B921E030918702A1
:10233000203029F0000025B1232B25B904C000006E
:102340000000000000C0000000000000309525B132
:10235000232325B92EEA2A95F1F72BEE30B735FF66
:102360000AC0A4B930918702309525B1232325B93D
:102370000FBE80E0089500002A9581F721E030919A
:102380008702203029F0000025B1232B25B904C095
:1023900000000000000000C00000000000003095B8
:1023A00025B1232325B9000024E52A95F1F7FC0186
:1023B0008CE0619170E0660F771F616072609AE057
:1023C00041E050E09A0126233723232B30918702E6
:1023D000203029F0000025B1232B25B904C00000CE
:1023E0000000000000C0000000000000309525B192
:1023F000232325B9000021E52A95F1F7440F551F45
:102400009A9501F78A95A9F620B7206120BFA4B953
:1024100030918702309525B1232325B90FBE81E085
:102420000895EF92FF920F931F937B018C0120E0A0
:1024300030E040E05FE40E94BD1588238CF0C801C5
:10244000B70120E030E040E05FE40E9489130E9481
:102450004B169B01AC01205030404040504806C014
:10246000C801B7010E944B169B01AC01B901CA011A
:102470001F910F91FF90EF900895A0E0B0E0E3E48A
:10248000F2E10C945319DC012B01FA019C9192307A
:1024900008F439C1EB018881823008F433C19430EB
:1024A00069F4843009F02FC111969C9111978981AC
:1024B000981709F428C1A3E2B1E025C1843009F4DA
:1024C00021C18230A9F4923009F01DC19A01AD01F9
:1024D00088E0EA010990AE01E90109929E0181506C
:1024E000C1F7E201898111969C918923818308C1FA
:1024F000923009F407C112962D903C901397EB018E
:102500008A819B811496AD90BD90CD90DC901797F9
:10251000EC80FD800E811F819101281B390BB901D0
:1025200037FF04C066277727621B730B6032710583
:102530000CF061C0121613066CF537014801062E27
:1025400004C096948794779467940A94D2F721E014
:1025500030E040E050E004C0220F331F441F551FFD
:102560006A95D2F721503040404050402E213F2103
:1025700040235123211531054105510521F021E06A
:1025800030E040E050E079018A01E628F728082988
:1025900019293CC0232BD1F1260E371E35014601E7
:1025A000062E04C096948794779467940A94D2F781
:1025B00021E030E040E050E004C0220F331F441F10
:1025C000551F6A95D2F721503040404050402A2193
:1025D0003B214C215D21211531054105510521F09B
:1025E00021E030E040E050E059016A01A628B72818
:1025F000C828D9280BC0821593052CF01C01AA24E9
:10260000BB24650103C0EE24FF24870111969C9131
:10261000D20111968C91981709F445C0992339F08D
:10262000A80197012A193B094C095D0906C0A601BA
:1026300095012E193F09400B510B57FD08C011821F
:102640003382228224833583468357831DC081E0F1
:1026500081833382228288279927DC01821B930B96
:10266000A40BB50B84839583A683B7830DC0220F7B
:10267000331F441F551F248335834683578382812C
:102680009381019793838283248135814681578189
:10269000DA01C9010197A109B1098F5F9F4FAF4FBF
:1026A000BF4328F30BC0918333822282EA0CFB1CC8
:1026B0000C1D1D1DE482F5820683178383E0808351
:1026C000248135814681578157FF1AC0C901AA2745
:1026D00097FDA095BA2F81709070A070B07056953C
:1026E000479537952795822B932BA42BB52B848365
:1026F0009583A683B7838281938101969383828396
:10270000DF0101C0D201CD01CDB7DEB7E2E10C940B
:102710006F19A0E2B0E0EFE8F3E10C945F19698370
:102720007A838B839C832D833E834F835887E9E094
:10273000EE2EF12CEC0EFD1ECE010196B7010E948B
:102740003C188E010F5E1F4FCE010596B8010E9406
:102750003C188A8991E089278A8BC701B801AE01AC
:10276000475E5F4F0E943D120E946717A096E6E009
:102770000C947B19A0E2B0E0E0ECF3E10C945F195B
:1027800069837A838B839C832D833E834F83588711
:10279000F9E0EF2EF12CEC0EFD1ECE010196B701F3
:1027A0000E943C188E010F5E1F4FCE010596B801A6
:1027B0000E943C18C701B801AE01475E5F4F0E94FE
:1027C0003D120E946717A096E6E00C947B19A0E2E8
:1027D000B0E0EDEEF3E10C94531969837A838B83B7
:1027E0009C832D833E834F835887CE010196BE0183
:1027F000675F7F4F0E943C18CE010596BE016F5E59
:102800007F4F0E943C189985923088F089898230E8
:10281000C8F0943019F4823051F404C0843029F4A3
:10282000923081F483E291E0C6C0923049F420E016
:102830009A858A89981321E02A87CE010996BBC020
:10284000823049F420E09A858A89981321E02A8B06
:10285000CE014196B0C02D843E844F8458886D8847
:102860007E888F88988CEE24FF248701AA24BB24BD
:10287000650140E050E060E070E0E0E0F0E0C101C0
:1028800081709070892BE9F0E60CF71C081D191D6A
:102890009A01AB012A0D3B1D4C1D5D1D80E090E0AF
:1028A000A0E0B0E0E614F7040805190520F481E083
:1028B00090E0A0E0B0E0BA01A901480F591F6A1FDB
:1028C0007B1FAA0CBB1CCC1CDD1C97FE08C081E042
:1028D00090E0A0E0B0E0A82AB92ACA2ADB2A319603
:1028E000E032F10549F0660C771C881C991C56945F
:1028F000479437942794C3CFFA85EA892B893C897A
:102900008B859C85280F391F2E5F3F4F17C0CA014A
:1029100081709070892B61F016950795F794E79474
:1029200080E090E0A0E0B0E8E82AF92A0A2B1B2B0F
:1029300076956795579547952F5F3F4F77FDE7CF82
:102940000CC0440F551F661F771F17FD4160EE0C2A
:10295000FF1C001F111F21503040403090E05907EC
:1029600090E0690790E4790760F32B8F3C8FDB01DF
:10297000CA018F779070A070B07080349105A10566
:10298000B10561F447FD0AC0E114F1040105110528
:1029900029F0405C5F4F6F4F7F4F40781A8EFE17D3
:1029A00011F081E08A8F4D8F5E8F6F8F78A383E067
:1029B000898FCE0149960E946717A096E2E10C9498
:1029C0006F19A8E1B0E0E7EEF4E10C945B196983BC
:1029D0007A838B839C832D833E834F835887B9E012
:1029E000EB2EF12CEC0EFD1ECE010196B7010E94DC
:1029F0003C188E010F5E1F4FCE010596B8010E9454
:102A00003C182985223008F47EC03989323010F410
:102A1000B8017CC08A859A8989278A87243011F079
:102A2000223031F4231709F06EC063E271E06EC00A
:102A3000343039F41D861E861F86188A1C861B8634
:102A400004C0323021F484E08987B7015FC02B8550
:102A50003C858B899C89281B390B3C872B87ED840F
:102A6000FE840F851889AD88BE88CF88D88CEA147B
:102A7000FB040C051D0540F4EE0CFF1C001F111F8C
:102A8000215030403C872B8720E030E040E050E090
:102A900080E090E0A0E0B0E460E070E0EA14FB04C5
:102AA0000C051D0540F0282B392B4A2B5B2BEA180F
:102AB000FB080C091D09B695A79597958795EE0C0F
:102AC000FF1C001F111F6F5F7F4F6F31710531F7C2
:102AD000DA01C9018F779070A070B07080349105D1
:102AE000A105B10561F427FD0AC0E114F104010557
:102AF000110529F0205C3F4F4F4F5F4F20782D8705
:102B00003E874F87588BBE01675F7F4FCB010E9486
:102B100067176896EAE00C947719A8E1B0E0E3E95A
:102B2000F5E10C945F1969837A838B839C832D83F1
:102B30003E834F83588789E0E82EF12CEC0EFD1E72
:102B4000CE010196B7010E943C188E010F5E1F4F07
:102B5000CE010596B8010E943C188985823040F06C
:102B60008989823028F0C701B8010E94B41801C0D9
:102B70008FEF6896E6E00C947B19A8E1B0E0E3ECF7
:102B8000F5E10C945F1969837A838B839C832D8391
:102B90003E834F83588789E0E82EF12CEC0EFD1E12
:102BA000CE010196B7010E943C188E010F5E1F4FA7
:102BB000CE010596B8010E943C188985823040F00C
:102BC0008989823028F0C701B8010E94B41801C079
:102BD0008FEF6896E6E00C947B19A8E0B0E0E3EF95
:102BE000F5E10C945C199B01AC0183E08983DA0167
:102BF000C9018827B7FD83959927AA27BB27B82E37
:102C0000211531054105510519F482E089833AC047
:102C10008823A9F0203080E0380780E0480780E86A
:102C2000580729F460E070E080E09FEC30C0EE24AB
:102C3000FF248701E21AF30A040B150B02C0790185
:102C40008A018EE1C82ED12CDC82CB82ED82FE82FD
:102C50000F831887C801B7010E941817019718162B
:102C6000190684F4082E04C0EE0CFF1C001F111F6F
:102C70000A94D2F7ED82FE820F831887C81AD90A08
:102C8000DC82CB82BA82CE0101960E946717289619
:102C9000E9E00C947819ACE0B0E0E1E5F6E10C94E1
:102CA000631969837A838B839C83CE010196BE016D
:102CB0006B5F7F4F0E943C188D81823061F18230C2
:102CC00050F1843021F48E81882351F12EC02F8160
:102CD000388537FD20C06E812F3131051CF0662309
:102CE000F9F023C08EE190E0821B930B29853A8591
:102CF0004B855C8504C056954795379527958A95F1
:102D0000D2F76623B1F050954095309521953F4F0D
:102D10004F4F5F4F0EC020E030E040E050E009C070
:102D20002FEF3FEF4FEF5FE704C020E030E040E0DF
:102D300050E8B901CA012C96E2E00C947F19A8E092
:102D4000B0E0E5EAF6E10C945B197B018C016115BA
:102D500071058105910519F482E0898360C083E0E3
:102D600089838EE1C82ED12CDC82CB82ED82FE825B
:102D70000F831887C801B7010E941817FC0131970B
:102D8000F7FF3BC0222733272E1B3F0B570168015B
:102D9000022E04C0D694C794B794A7940A94D2F78D
:102DA00040E050E060E070E081E090E0A0E0B0E062
:102DB00004C0880F991FAA1FBB1F2A95D2F701973D
:102DC000A109B1098E219F21A023B1230097A1055C
:102DD000B10521F041E050E060E070E04A295B2954
:102DE0006C297D294D835E836F8378878EE190E027
:102DF0008E1B9F0B9C838B8312C0309781F00E2E0D
:102E000004C0EE0CFF1C001F111F0A94D2F7ED82C4
:102E1000FE820F831887CE1ADF0ADC82CB821A82E9
:102E2000CE0101960E9467172896EAE00C94771964
:102E3000EF92FF920F931F937B018C0180E0E816C5
:102E400080E0F80681E0080780E0180788F48FEF3B
:102E5000E816F1040105110531F028F088E090E052
:102E6000A0E0B0E017C080E090E0A0E0B0E012C0C9
:102E700080E0E81680E0F80680E0080781E01807A7
:102E800028F088E190E0A0E0B0E004C080E190E0AC
:102E9000A0E0B0E020E230E040E050E0281B390B39
:102EA0004A0B5B0B04C016950795F794E7948A9537
:102EB000D2F7F701E55DFE4F8081281B31094109FA
:102EC0005109C9011F910F91FF90EF900895DF9272
:102ED000EF92FF920F931F93FC01E480F58006812F
:102EE0001781D1808081823048F480E090E0A0E1B9
:102EF000B0E0E82AF92A0A2B1B2BA5C0843009F47C
:102F00009FC0823021F4EE24FF24870105C0E11424
:102F1000F1040105110519F4E0E0F0E096C06281CA
:102F200073819FEF623879070CF05BC022E83FEFB6
:102F3000261B370B2A3131052CF020E030E040E031
:102F400050E02AC0B801A701022E04C0769567950B
:102F5000579547950A94D2F781E090E0A0E0B0E061
:102F600004C0880F991FAA1FBB1F2A95D2F701978B
:102F7000A109B1098E219F21A023B1230097A105AA
:102F8000B10521F081E090E0A0E0B0E09A01AB0152
:102F9000282B392B4A2B5B2BDA01C9018F779070D4
:102FA000A070B07080349105A105B10539F427FFF8
:102FB00009C0205C3F4F4F4F5F4F04C0215C3F4F23
:102FC0004F4F5F4FE0E0F0E02030A0E03A07A0E094
:102FD0004A07A0E45A0710F0E1E0F0E079018A0125
:102FE00027C06038710564F5FB01E158FF4FD80137
:102FF000C7018F779070A070B07080349105A105E3
:10300000B10539F4E7FE0DC080E490E0A0E0B0E047
:1030100004C08FE390E0A0E0B0E0E80EF91E0A1FC4
:103020001B1F17FF05C016950795F794E794319677
:1030300087E016950795F794E7948A95D1F705C030
:10304000EE24FF248701EFEFF0E06E2F67956627EF
:103050006795902F9F77D794DD24D7948E2F8695F0
:10306000492F462B582F5D29B701CA011F910F9197
:10307000FF90EF90DF900895FC01DB0140815181CA
:103080002281622F6F7770E0221F2227221F9381F7
:10309000892F880F822B282F30E0991F9927991F9D
:1030A00011969C93119721153105A9F541155105EC
:1030B0006105710511F482E037C082E89FEF139635
:1030C0009C938E9312979A01AB0167E0220F331FF6
:1030D000441F551F6A95D1F783E08C930DC0220FD2
:1030E000331F441F551F12968D919C911397019782
:1030F00013969C938E931297203080E0380780E0DF
:10310000480780E4580758F314962D933D934D9348
:103110005C93179708952F3F310579F441155105B8
:103120006105710519F484E08C93089564FF03C070
:1031300081E08C9312C01C9210C02F573040139620
:103140003C932E93129783E08C9387E0440F551F96
:10315000661F771F8A95D1F7706414964D935D931F
:103160006D937C93179708951F93DC01FB019C914D
:10317000923008F447C08081823008F443C0943014
:1031800051F411961C91843099F58181682F70E07B
:10319000611B71093FC0843021F0923031F48230DC
:1031A000B9F18181882389F12DC011961C91119765
:1031B0008230F1F081811817D9F412962D913C914B
:1031C0001397828193818217930794F02817390708
:1031D000BCF014968D919D910D90BC91A02D2481F1
:1031E000358146815781281739074A075B0718F44C
:1031F000112341F00AC082179307A407B50740F4D2
:10320000112319F061E070E005C06FEF7FEF02C09D
:1032100060E070E0CB011F910895629FD001739F21
:10322000F001829FE00DF11D649FE00DF11D929F62
:10323000F00D839FF00D749FF00D659FF00D9927A1
:10324000729FB00DE11DF91F639FB00DE11DF91FC5
:10325000BD01CF011124089597FB092E07260AD03E
:1032600077FD04D00CD006D000201AF4709561953B
:103270007F4F0895F6F7909581959F4F0895AA1B6B
:10328000BB1B51E107C0AA1FBB1FA617B70710F051
:10329000A61BB70B881F991F5A95A9F78095909583
:1032A000BC01CD0108952F923F924F925F926F9291
:1032B0007F928F929F92AF92BF92CF92DF92EF92C6
:1032C000FF920F931F93CF93DF93CDB7DEB7CA1B47
:1032D000DB0B0FB6F894DEBF0FBECDBF09942A8872
:1032E000398848885F846E847D848C849B84AA841A
:1032F000B984C884DF80EE80FD800C811B81AA81A7
:10330000B981CE0FD11D0FB6F894DEBF0FBECDBF71
:10331000ED010895F999FECF92BD81BDF89A9927E4
:1033200080B50895262FF999FECF1FBA92BD81BDB1
:1033300020BD0FB6F894FA9AF99A0FBE0196089537
:04334000F894FFCF2F
:103344006400640064006400640064006400640059
:10335400FF000100010001000100BE05BF05C20518
:10336400B402AA00000000000000000001020203F1
:103374000303030404040404040404050505050507
:1033840005050505050505050505050606060606E4
:1033940006060606060606060606060606060606C9
:1033A40006060606060606060606060707070707B4
:1033B4000707070707070707070707070707070799
:1033C4000707070707070707070707070707070789
:1033D4000707070707070707070707070707070779
:1033E4000707070707070707070707080808080864
:1033F4000808080808080808080808080808080849
:103404000808080808080808080808080808080838
:103414000808080808080808080808080808080828
:103424000808080808080808080808080808080818
:103434000808080808080808080808080808080808
:1034440008080808080808080808080808080808F8
:1034540008080808080808080808080808080808E8
:0C34640008080808080808080808080004
:00000001FF
