:100000000C9446000C946C000C946C000C946C00E6
:100010000C946C000C946C000C94A5060C946C0071
:100020000C946C000C946C000C946C000C946B0C95
:100030000C946C000C946C000C94CB0B0C946C0026
:100040000C946C000C946C000C946C000C946C0080
:100050000C946C000C946C000C946C000C948D0C43
:100060000C946C000C946C0008078407DC06D20624
:10007000D90666075B07E90DCD0CCD0CE60DF20D38
:10008000E20DF90DF50DFD0DB60D880D11241FBE05
:10009000CFEFD8E0DEBFCDBF14BE88E10FB6F89435
:1000A00080936000109260000FBE11E0A0E0B1E00C
:1000B000E2ECF4E202C005900D92AA32B107D9F742
:1000C00021E0AAE2B1E001C01D92A03CB207E1F735
:1000D0000E942C0F0C945F120C9400008091BB01C5
:1000E0009091BC01892BB1F510921D0110921C0159
:1000F00088E290E0909319018093180181E090E0EC
:1001000090932F0180932E0125E030E030933B0146
:1001100020933A0190932B0180932A01909335010B
:100120008093340188E295E020E010924F01209303
:10013000460120913201209347019093480180931A
:10014000490186E491E00E94900E909351018093C2
:100150005001089520911C0190913A01809118015D
:10016000E4CF80911C0180934601809132018093FD
:100170004701809138018093480180911801809354
:10018000490186E491E00E94900E90935101809382
:10019000500186E491E00895CF92DF92EF92FF92B2
:1001A000CF93DF93EC01CB01288130E03093410104
:1001B000209340010E94040990E090931B018093DA
:1001C0001A01853691050CF06EC040918501509161
:1001D0008601609187017091880140935601509388
:1001E000570160935801709359012091400130915B
:1001F0004101E0911C01F0911D01E217F3070CF0A1
:1002000059C040918501509186016091870170919C
:10021000880140935A0150935B0160935C01709395
:100220005D01109237011092360131962E173F076B
:1002300009F4BAC08091BB019091BC01892B99F15E
:1002400040918501509186016091870170918801EC
:1002500080915A0190915B01A0915C01B0915D0188
:1002600080569F4FAF4FBF4F84179507A607B7071C
:10027000D0F481E090E09093370180933601909321
:1002800033018093320125E030E030933D0120932B
:100290003C0124E630E03093130120931201909347
:1002A000310180933001DF91CF91FF90EF90DF908B
:1002B000CF9008952E173F07B9F14091BB0150919F
:1002C000BC01452B81F3E21BF30B3297329708F404
:1002D0009EC0409185015091860160918701709187
:1002E000880140935E0150935F01609360017093B9
:1002F00061012F5F3F4F30931D0120931C012A8124
:1003000030E030933B0120933A0121E030E030931C
:100310002B0120932A0190931901809318013093A7
:100320002F0120932E018CCF2F3F310531F24B81CD
:1003300050E050931701409316016091180170919D
:100340001901461757070CF075CF40918501509160
:100350008601609187017091880140935E015093FE
:100360005F0160936001709361012F5F3F4F309395
:100370001D0120931C012A8130E030933B01209322
:100380003A0121E030E030932B0120932A01909331
:1003900019018093180130932F0120932E01809131
:1003A000BB019091BC014ACF298130E030933301E9
:1003B000209332012A8130E030933D0120933C01AB
:1003C00041E050E050932D0140932C012430310541
:1003D00009F447C020913E0130913F012F5F3F4F0C
:1003E00030933F0120933E012130310559F0909325
:1003F00013018093120181E090E09093310180938A
:10040000300118CF1092070110920601F0CF4091F1
:1004100018015091190184179507D4F4C0908501F3
:10042000D0908601E0908701F090880140915E01B4
:1004300050915F01609160017091610140585F4F80
:100440006F4F7F4F4C155D056E057F0508F441CF5A
:100450004091160150911701841795070CF439CF7C
:10046000EFCE10923F0110923E01C1CF0E947C0856
:10047000817090E0089580911C0190911D0182305F
:100480009105C9F03CF4009799F0019759F481E087
:100490000C94470C8330910541F0049719F485E0E2
:1004A0000C94470C81E10C94470C80E10C94470CB0
:1004B00085E10C94470C84E00C94470C20910A01D0
:1004C00030910B012817390771F090930B0180933D
:1004D0000A01009781F081309105A1F082309105E9
:1004E000C9F0039709F008950E9421086091AB01BB
:1004F00080E00C941C0880E00E94470C60E080E0E3
:100500000C941C080E9421086091BE018091BD01DD
:100510000C941C080E94210860E08091BF010C949B
:100520001C088091BB019091BC01892B51F1409135
:1005300085015091860160918701709188018091B9
:100540005E0190915F01A0916001B09161018056C0
:100550009F4FAF4FBF4F84179507A607B70788F483
:1005600080911C0190911D018F3F910554F48FEFF4
:1005700090E090931D0180931C0110923301109222
:1005800032010895CF93DF93EC0185E10E94470C7F
:10059000C230D10571F0C330D10589F0C130D10529
:1005A00021F0CE01DF91CF9108950E947C0880FD5B
:1005B00006C0C3E0D0E0CE01DF91CF910895C2E044
:1005C000D0E0CE01DF91CF910895CF93DF93C0911A
:1005D0000401D09105018091360190913701019776
:1005E00009F412C120911201309113018091100180
:1005F00090911101281739070CF056C020910E0177
:1006000030910F0180910C0190910D018217930799
:100610000CF00FC184E00E94470C80910001909182
:100620000101C0910401D0910501049799F085E181
:100630000E94470CC230D10559F0C330D10509F4EE
:100640003AC1C130D10531F40E947C0880FD33C12C
:10065000C3E0D0E0109203011092020184E090E028
:100660009093010180930001D0930501C093040190
:1006700080910A0190910B01C817D90791F0D0938E
:100680000B01C0930A01209709F4C1C0C130D10504
:1006900009F4E1C0C230D10509F4E7C0239709F499
:1006A000BFC0DF91CF91089528173907E9F182176C
:1006B0009307D4F620910E0130910F0180910C0127
:1006C00090910D01821793070CF071C084E10E9494
:1006D000470C8091020190910301C0910401D091D7
:1006E0000501029709F45BC085E10E94470CC23006
:1006F000D10559F0C330D10509F4C0C0C130D105CE
:1007000031F40E947C0880FDB9C0C3E0D0E082E0F3
:1007100090E0909303018093020184E090E0909335
:10072000010180930001A0CF20910E0130910F01B3
:1007300080910C0190910D01821793070CF0A1C0DC
:1007400085E00E94470C8091020190910301C091C5
:100750000401D0910501892B31F080910001909125
:100760000101049779F085E10E94470CC230D10560
:1007700009F4A8C0C330D10509F4BDC0C130D1050A
:1007800009F49CC081E090E0909303018093020102
:1007900084E090E0909301018093000165CF809107
:1007A000000190910101049709F09ECFB0CF81E143
:1007B0000E94470C8091020190910301C0910401B5
:1007C000D0910501029799F085E10E94470CC23053
:1007D000D10559F0C330D10509F48AC0C130D10523
:1007E00031F40E947C0880FD83C0C3E0D0E082E049
:1007F00090E0909303018093020183E090E0909356
:1008000001018093000130CFC1E0D0E02DCF80E026
:100810000E94470C60E080E0DF91CF910C941C08AF
:100820000E9421086091AB0180E0DF91CF910C9490
:100830001C0881E00E94470CC0910401D091050181
:10084000109203011092020183E090E09093010165
:100850008093000109CF0E9421086091BE01809120
:10086000BD01DF91CF910C941C080E94210860E02B
:100870008091BF01DF91CF910C941C08C2E0D0E0C1
:1008800046CF80E10E94470C8091020190910301C4
:10089000C0910401D0910501892BB9F081E090E06D
:1008A000909303018093020183E090E09093010113
:1008B00080930001D9CEC2E0D0E0CCCE0E947C086B
:1008C00080FD19C0C3E0D0E05DCF85E10E94470CF8
:1008D000C230D10551F0C330D10581F0C130D1050E
:1008E000E9F60E947C0880FD09C0C3E0D0E0D6CFC5
:1008F000C2E0D0E07CCFC2E0D0E044CFC2E0D0E0A4
:10090000CDCFCF92DF92EF92FF928091BB01909179
:10091000BC01892B09F446C04091850150918601A4
:10092000609187017091880180915E0190915F01D3
:10093000A0916001B091610180569F4FAF4FBF4FB2
:1009400084179507A607B70768F580911C01909159
:100950001D018F3F910534F58FEF90E090931D01BD
:1009600080931C01109233011092320185E090E0D7
:10097000909339018093380180910A0190910B0185
:10098000892B09F474C010920B0110920A0180E0C7
:100990000E94470C60E080E0FF90EF90DF90CF90E6
:1009A0000C941C0880913201909133010197F1F66B
:1009B00080913A0190913B0185309105B9F62091E3
:1009C0003C0130913D012430310581F22091360106
:1009D000309137012130310509F44EC08091180162
:1009E000909119018B32910534F444E050E050931A
:1009F000390140933801409112015091130149325D
:100A000051050CF4B3CF4091380150913901443075
:100A1000510509F0B1CF4091300150913101413081
:100A20005105D1F160918501709186018091870116
:100A3000909188010E947E106B017C0160915201AF
:100A40007091530180915401909155010E947E1044
:100A500023E333E343EB51E40E94810F9B01AC019C
:100A6000C701B6010E940C1118160CF485CFFF9037
:100A7000EF90DF90CF9008954091180150911901A7
:100A8000423351050CF074CF84E090E0909339012B
:100A900080933801CA01BFCF40912E0150912F01A0
:100AA0004130510509F0BECF4091340150913501DC
:100AB000452B21F410922F0110922E01232B21F4AB
:100AC00010923101109230012091120130911301E6
:100AD000820F931F90930F0180930E0140910601A6
:100AE00050910701452B71F441E050E0509307010C
:100AF00040930601309311012093100190930D0152
:100B000080930C010E94E5028091850190918601FD
:100B1000A0918701B0918801809352019093530175
:100B2000A0935401B0935501809106019091070163
:100B3000019709F09CCF80911201909113012091AF
:100B40001001309111018217930724F49093110141
:100B50008093100180910E0190910F0120910C0162
:100B600030910D01821793070CF081CF90930D0106
:100B700080930C017CCF089580E090E00895089563
:100B8000DF92EF92FF920F931F93CF93DF93F8942E
:100B900014B817B81AB815B818B81BB8529A5A9A98
:100BA00014BC85E085BD8FEF87BD22E020936E00E9
:100BB00010928000109281008FE89BE09093890052
:100BC0008093880020936F005398239881EA809344
:100BD000B0002093B1001092B4001092B3008BE0EB
:100BE00080BF83E080937F0086E080937C0083E871
:100BF00080937A0080917A00806480937A0080915B
:100C00007A0086FDFCCF10927C0083EA80937A0004
:100C100081E080937B0081E090E00E94F5118F3F9E
:100C200011F08093660010928901C1E0C0936201C7
:100C3000C093A601109280011092BA0180E990E061
:100C40000E94F51180937F0180917F01887311F0DC
:100C5000C0937F011092AA011092A9018FEF90E03A
:100C60009093A8018093A7011092850110928601AC
:100C7000109287011092880181E08093450182E4FF
:100C80009FE09093B9018093B80180EB90E00E94BF
:100C9000F511C82F81EB90E00E94F5112C2F30E068
:100CA000382B3093BC012093BB0185E090E00E947B
:100CB000F5118093BF0189E090E00E94F5118093C7
:100CC000AB018CE090E00E94F5118093BD0184E1BE
:100CD00090E00E94F5118093BE015AE8E52E51E0A4
:100CE000F52E03E611E0C0E2D0E0CE010E94F5113E
:100CF000D82ECE0101960E94F5112D2D30E0322F15
:100D00002227282BF701219331937F01CE01C09632
:100D10000E94F511D82ECE01C1960E94F5112D2DFD
:100D200030E0322F2227282BF801219331938F01B5
:100D30002296CC33D105C9F67894DF91CF911F91DB
:100D40000F91FF90EF90DF9008951F920F920FB6D2
:100D50000F9211248F9388E10FB6F894809360006E
:100D6000109260000FBE8F910F900FBE0F901F90DA
:100D700018957C01EB01D12C88248A9464E0B62E6E
:100D800076E0972EE3E8AE2E08E110E0F9E2CF2EF0
:100D9000E0914501F0E0E730F105D0F7EC5CFF4F62
:100DA0000C94570FDD2009F4FDC0B0924501DD24FD
:100DB000D394FE010995ECCF809189018111EBC09C
:100DC000F89490927C00A0927A0080917A008064DE
:100DD00080937A0080917A0086FDFCCF2091780084
:100DE0003091790078942B3A92E039070CF0EDC0FD
:100DF0002938E2E03E070CF0EFC0273632400CF411
:100E0000CAC0559A549A3B9A3A9A3D983C98C0CF9A
:100E1000F89480B7877F80BF80917A008F77809326
:100E20007A0014B817B81AB815B818B81BB80FB6A6
:100E3000F894A895009360000FBEC0926000809166
:100E4000600080648093600083B7817F846083BF8B
:100E5000F89483B7816083BF7894889583B78E7F39
:100E600083BF789410928901529A5A9A80917A009D
:100E7000806880937A0087E592E00197F1F700C0DF
:100E8000000080B7886180BF559A549A3B9A3A9A7D
:100E90003D9A3C9AEFE1FEE43197F1F700C0000083
:100EA00080918901811181C0559854983B983A9856
:100EB0003D983C986DCF80914301811141C01092C3
:100EC000B3001092B4001092440162CF4899ECCF65
:100ED000559A54983B983A983D983C988FEC97E0F7
:100EE0000197F1F700C00000559854983B983A9844
:100EF0003D983C989FEFE1EEF4E09150E040F040E7
:100F0000E1F700C0000044CF559854983B9A3A9AB4
:100F10003D983C98EFECF7E03197F1F700C0000006
:100F2000559854983B983A983D983C98FFEF21EE9D
:100F300084E0F15020408040E1F700C0000028CF5D
:100F40009091430180914401981709F421CF809139
:100F500043018093440180914301813009F450C0E2
:100F6000809143011092B3008092B4008230D9F195
:100F70008092B3008092B4008FE295E70197F1F779
:100F800000C000008091BE019091BD019093B3001C
:100F90008093B400FDCE559A549A3B983A983D9868
:100FA0003C98F6CEF701099500CF559A549A3B9894
:100FB0003A983D983C98FFEF20E782E0F1502040BE
:100FC0008040E1F700C000006FCF559854983B9ADD
:100FD0003A9A3D983C98DCCE559854983B983A986C
:100FE0003D9A3C9AD5CEEFE2F5E73197F1F700C094
:100FF00000008091AB011092B3008093B400C8CE82
:101000008092B3001092B4008FE295E70197F1F758
:1010100000C000008091BF018093B3001092B40023
:10102000B7CE07C0EFECF7E03197F1F700C0000052
:1010300001970097B9F708958093B3006093B400C7
:1010400008958FEF8093B3008093B4008FE090E019
:10105000EFECF7E03197F1F700C00000019700973F
:10106000B9F708958091890181111EC0F89487E035
:1010700080937C0083E880937A0080917A0080647A
:1010800080937A0080917A0086FDFCCF8091780071
:101090009091790010927C0023EA20937A0021E05D
:1010A00020937B00789408958FEF9FEF08958091AF
:1010B000890181111EC0F89488EC80937C0087E838
:1010C00080937A0080917A00806480937A00809186
:1010D0007A0086FDFCCF8091780090917900109283
:1010E0007C0023EA20937A0021E020937B0078940F
:1010F00008958FEF9FEF08951F93CF93DF9360E0E4
:1011000070E080E013EAD1E0C6E0B3E8E1E0F0E0AF
:1011100020E830E0F894C0937C00B0937A0090917E
:101120007A00906490937A0090917A0096FDFCCFBB
:101130004091780050917900A42FA17090917A008D
:10114000906490937A0090917A0096FDFCCF409144
:1011500078005091790010927C0010937A00D0931F
:101160007B0078944170A41305C0215031092115EA
:10117000310581F6AA2339F09F01062E01C0220F06
:101180000A94EAF7822B6F5F7F4F6830710509F090
:10119000BFCFDF91CF911F91089580911E01982FAD
:1011A000990F990F990F98278091420121E0280FFC
:1011B00020934201869586958927929596959770FA
:1011C000892780931E01089580931E0108958091C0
:1011D0008901811116C0F89486E080937C0083E831
:1011E00080937A0080917A00806480937A00809165
:1011F0007A0086FDFCCF80917800909179007894F8
:1012000008958FEF9FEF08952F923F924F925F9234
:101210006F927F928F929F92AF92BF92CF92DF9206
:10122000EF92FF920F931F93CF93DF9300D000D0E4
:1012300000D0CDB7DEB78C01DC0112960D90BC91C9
:10124000A02DBE83AD83A438E3E0BE070CF0CAC076
:1012500080916301909164018A179B0708F4A9C1EA
:1012600060906501709066016A167B0608F427C2DB
:1012700060906701709068016A167B0608F428C2C6
:101280006090690170906A016A167B0608F429C2B1
:1012900060906B0170906C016A167B0608F42AC29C
:1012A00060906D0170906E016A167B0608F48BC128
:1012B00060906F01709070016A167B0608F423C27B
:1012C00060907101709072016A167B0608F424C266
:1012D00060907301709074016A167B0608F425C251
:1012E00060907501709076016A167B0608F426C23C
:1012F00060907701709078016A167B0608F427C227
:101300006090790170907A016A167B0608F42DC20C
:1013100060907B0170907C016A167B0608F42EC2F7
:1013200060907D0170907E016A167B0608F42FC2E2
:1013300080E090E0A0EDB0E489839A83AB83BC8326
:101340008CE0E82EF12CF701EE0FFF1FED59FE4F58
:1013500080819181B301681B790B80E090E00E944D
:101360007E109B01AC010E94810F6B017C01AD815D
:10137000BE81BD01882777FD8095982F0E9480103F
:101380004B015C01B30180E090E00E947E102B01D4
:101390003C0129813A814B815C81C701B6010E94E1
:1013A00010119B01AC01C301B2010E94800F9B018F
:1013B000AC01C501B4010E94800F20E030E040E2A2
:1013C00051E40E9410110E944D105B01C701B6014B
:1013D0000E944D10AB01BC01C501BA010E94430F30
:1013E000762EE8C077247A94D801AD90BC90809195
:1013F0008A0190918B018A159B0508F46FC00091BA
:101400008C0110918D010A151B0508F45CC1009137
:101410008E0110918F010A151B0508F45DC1009122
:101420009001109191010A151B0508F45EC100910D
:101430009201109193010A151B0508F45FC10091F8
:101440009401109195010A151B0508F4D8C000916C
:101450009601109197010A151B0508F458C10091D7
:101460009801109199010A151B0508F459C10091C2
:101470009A0110919B010A151B0508F45AC10091AD
:101480009C0110919D010A151B0508F45BC1009198
:101490009E0110919F010A151B0508F45CC1009183
:1014A000A0011091A1010A151B0508F459C1009172
:1014B000A2011091A3010A151B0508F45AC100915D
:1014C000A4011091A5010A151B0508F45BC11AE5DA
:1014D000BFEF7B1207C081E2810F52C010E0BFEF67
:1014E0007B16C9F3ED81FE81BF01882777FD8095CA
:1014F000982F0E9480106B017C01672D70E080E0C6
:1015000090E00E947E104B015C01A701960160E013
:1015100070E081E694E40E94800F9B01AC01C5015C
:10152000B4010E9410114B015C01612F70E080E05A
:1015300090E00E947E102B013C0120E030E04FE261
:1015400054E4C701B6010E94800F9B01AC01C301A6
:10155000B2010E9410119B01AC01C501B4010E94AF
:10156000810F20E030E048E453E40E94E50F20E0E2
:1015700030E044E052E40E94810F0E945210862F16
:1015800026960FB6F894DEBF0FBECDBFDF91CF9188
:101590001F910F91FF90EF90DF90CF90BF90AF9091
:1015A0009F908F907F906F905F904F903F902F9083
:1015B0000895712CED81FE81ED3BF2400CF014CFCB
:1015C00081E2870DDDCF65E085E090E07C01F1E010
:1015D000EF1AF10870E080E090E00E947E1020E0B9
:1015E00030E040E05FE30E94101120E030E0A9010C
:1015F0000E94810F69837A838B839C83A4CE75E0DC
:10160000672EE5E0F0E0EE0FFF1FE857FE4F808108
:101610009181B801681B790B80E090E00E947E10F8
:101620009B01AC010E94810F6B017C01B5018827F1
:1016300077FD8095982F0E9480104B015C01B801C6
:1016400080E090E00E947E101B012C01662D70E06E
:1016500080E090E00E947E1020E030E040E05FE318
:101660000E94101120E030E0A9010E94810FA70123
:1016700096010E9410119B01AC01C201B1010E94B0
:10168000800F9B01AC01C501B4010E94800F20E0D6
:1016900030E040E251E40E9410110E944D108B0195
:1016A000C701B6010E944D10AB01BC01C801BA01CF
:1016B0000E94430F162F6F3F09F011CF81CF61E0D9
:1016C00081E090E083CF66246394E1E0F0E09BCF7B
:1016D00062E082E090E07ACFA2E06A2EE2E0F0E001
:1016E00092CF63E083E090E071CFF3E06F2EE3E010
:1016F000F0E089CF64E084E090E068CFE4E06E2E13
:10170000E4E0F0E080CF66E086E090E05FCF66E066
:10171000662EE6E0F0E077CF67E087E090E056CF16
:1017200057E0652EE7E0F0E06ECF68E088E090E0FB
:101730004DCF48E0642EE8E0F0E065CF69E089E055
:1017400090E044CF39E0632EE9E0F0E05CCF6AE05E
:101750008AE090E03BCF2AE0622EEAE0F0E053CF4F
:101760009BE0692EEBE0F0E04ECF6BE08BE090E089
:101770002DCF8CE0682EECE0F0E045CF6CE08CE003
:1017800090E024CFBDE06B2EEDE0F0E03CCF6DE0CB
:101790008DE090E01BCF1F920F920FB60F92112495
:1017A0002F933F934F935F936F937F938F939F9369
:1017B000AF93BF93EF93FF938091A9019091AA01FA
:1017C0002091A7013091A801820F931F9093AA0145
:1017D0008093A9018FEF90E09093A8018093A701D7
:1017E0008FEF87BD8091850190918601A09187013F
:1017F000B09188010196A11DB11D80938501909340
:101800008601A0938701B09388018091890181119D
:101810000FC08091B8019091B9012091A901309138
:10182000AA018217930720F480914501843089F042
:10183000FF91EF91BF91AF919F918F917F916F91A8
:101840005F914F913F912F910F900FBE0F901F907E
:101850001895E0912101F09122010995009741F33B
:101860000E94A90E811109C00E94E5119927909349
:10187000A8018093A70187BDDBCFE0911F01F09104
:10188000200109951092AA011092A901D1CF80FFE1
:1018900011C0559A81FF11C0549A82FF11C03B9A22
:1018A00083FF11C03A9A84FF11C03D9A85FD11C093
:1018B0003C980895559881FDEFCF549882FDEFCF65
:1018C0003B9883FDEFCF3A9884FDEFCF3D9885FF9D
:1018D000EFCF3C9A08951F920F920FB60F921124EA
:1018E0008F939F9310928100109285001092840034
:1018F00081E0809362018093A60110928901109289
:101900007C0093EA90937A0080937B009F918F9163
:101910000F900FBE0F901F9018951F920F920FB649
:101920000F9211242F933F934F935F936F937F9365
:101930008F939F93AF93BF93CF93DF93EF93FF93D7
:10194000209184003091850041E04093890180918D
:1019500062018823A9F110928500109284004093BF
:1019600081001092BA01109262018091A601882331
:10197000A1F080917A0086FDFCCF80917800909153
:101980007900909384018093830181E080937C00AF
:1019900093EA90937A0080937B00FF91EF91DF911F
:1019A000CF91BF91AF919F918F917F916F915F91F7
:1019B0004F913F912F910F900FBE0F901F90189550
:1019C000C901875891098437994008F04FC02658BB
:1019D0003109A4EFB0E00E945D0FAA27BB27883031
:1019E00008F47BC0409362018091A601811152C02E
:1019F00080918001E82FF0E0E455FE4F9091BA010C
:101A000090838F5F809380018C3039F61092810033
:101A100010928500109284004093A60110928901D3
:101A2000C091B601D091B7018CEA91E00E94900E6E
:101A3000C817D90709F0B1CF8091B50187FF5EC003
:101A400098E7980F933030F0539823981092B40091
:101A50001092B30090E0FC01E058F109EB30F10581
:101A600008F09BCFE55CFF4F0C94570F109281005C
:101A70001092850010928400409362014093A60169
:101A80001092890110927C0083EA80937A0040933F
:101A90007B0083CF80917A0086FDFCCF8091780017
:101AA00090917900909382018093810110927C0043
:101AB00083EA80937A0081E080937B009091BA0161
:101AC0009923B9F010928100109285001092840041
:101AD0008093A6011092890160CF21E030E001C01F
:101AE000220F8A95EAF78091BA01822B8093BA017E
:101AF00054CF1092A601109280014FCFE0912301A4
:101B0000F091240161E871E08CEA91E0099545CFFC
:101B10008091AC01823009F4DCC008F4B9C0833094
:101B200009F4C5C0843009F0B0C0809143019091A0
:101B3000B201833009F4E2C08091B10110924401F6
:101B400023E0209343018093BD019093BE018091D7
:101B50004501863009F421CF539A239A1092B4009C
:101B60001092B30086E08093450117CF8091450124
:101B7000863099F0539A239A1092B4001092B300D1
:101B8000559854983B983A983D983C981092430148
:101B90001092440186E08093450181E090E000903E
:101BA000AC0102C0880F991F0A94E2F72091BB0193
:101BB0003091BC0182239323892B09F086C01092B7
:101BC0004301EBCE81E080934501E7CEE0E0F0E019
:101BD000099580916E008D7F80936E0016BCE0E0C9
:101BE000F0E7099510924501D8CE82E08093450137
:101BF000D4CE85E080934501D0CE809145018330DD
:101C000009F4CBCE80914501843009F4C6CE539AB5
:101C1000239A1092B4001092B30083E080934501A0
:101C2000BCCE80914501863009F0B7CE6091BB01F2
:101C300080EB90E00E94FD116091BC0181EB90E08F
:101C40000E94FD116091BF0185E090E00E94FD11AE
:101C50006091AB0189E090E00E94FD116091BD01AF
:101C60008CE090E00E94FD116091BE0184E190E063
:101C70000E94FD11539823981092B4001092B30063
:101C800081E0809345018091AC01811160CF85CEC8
:101C9000882339F28130C9F78091AD019091AE016E
:101CA0009093BC018093BB011092430150CF80916F
:101CB0004301823071F18091B0011092440192E0B1
:101CC000909343018093AB0142CF81E08093430125
:101CD00064CE80914301813051F08091AF01109228
:101CE000440191E0909343018093BF0130CF8091F4
:101CF000AF019091BF018913F2CF29CF8091BE012E
:101D000098131ACF8091B1012091BD01821316CF93
:101D10001ECF8091B0019091AB018913CECF17CF28
:101D2000FC012AE08FEF9FEF31918327082E8295E7
:101D3000807F8025092E982F82958F7008268695A2
:101D400098278927880F880F880F8025215061F7F1
:101D500008950FB6F894A4B120917F012A2B24B9DD
:101D600021E030917F01203029F0000025B1232BA4
:101D700025B904C000000000000000C00000000001
:101D80000000309525B1232325B92EEA2A95F1F7D5
:101D90002BEE30B735FF0AC0A4B930917F013095E2
:101DA00025B1232325B90FBE80E0089500002A95B0
:101DB00081F721E030917F01203029F0000025B12A
:101DC000232B25B904C000000000000000C0000063
:101DD00000000000309525B1232325B9000024E53B
:101DE0002A95F1F7FC018CE0619170E0660F771F96
:101DF000616072609AE041E050E09A012623372347
:101E0000232B30917F01203029F0000025B1232BB6
:101E100025B904C000000000000000C00000000060
:101E20000000309525B1232325B9000021E52A952E
:101E3000F1F7440F551F9A9501F78A95A9F620B737
:101E4000206120BFA4B930917F01309525B12323B3
:101E500025B90FBE81E008950E94C0058CEC90E08A
:101E6000909324018093230181EB90E090932201D1
:101E70008093210161E874E08EE690E00E94B9064B
:101E800080E090E0089597FB072E16F4009407D0A9
:101E900077FD09D00E946C0F07FC05D03EF49095A9
:101EA00081959F4F0895709561957F4F0895EE0F2E
:101EB000FF1F0590F491E02D0994A29FB001B39FFC
:101EC000C001A39F700D811D1124911DB29F700D43
:101ED000811D1124911D0895AA1BBB1B51E107C050
:101EE000AA1FBB1FA617B70710F0A61BB70B881FAA
:101EF000991F5A95A9F780959095BC01CD01089539
:101F00005058BB27AA270ED04DC13ED130F043D147
:101F100020F031F49F3F11F41EF433C10EF4E0952C
:101F2000E7FB29C1E92F4FD180F3BA176207730786
:101F30008407950718F071F49EF567C10EF4E095DB
:101F40000B2EBA2FA02D0B01B90190010C01CA0173
:101F5000A0011124FF27591B99F0593F50F4503E1E
:101F600068F11A16F040A22F232F342F4427585F10
:101F7000F3CF469537952795A795F0405395C9F728
:101F80007EF41F16BA0B620B730B840BBAF09150E0
:101F9000A1F0FF0FBB1F661F771F881FC2F70EC07F
:101FA000BA0F621F731F841F48F487957795679552
:101FB000B795F7959E3F08F0B3CF9395880F08F03B
:101FC0009927EE0F9795879508950CD0EBC0E3D035
:101FD00040F0DAD030F021F45F3F19F0CCC051115D
:101FE00015C1CFC0F0D098F39923C9F35523B1F3AD
:101FF000951B550BBB27AA2762177307840738F078
:102000009F5F5F4F220F331F441FAA1FA9F333D0D6
:102010000E2E3AF0E0E830D091505040E695001C8A
:10202000CAF729D0FE2F27D0660F771F881FBB1F46
:10203000261737074807AB07B0E809F0BB0B802D20
:10204000BF01FF2793585F4F2AF09E3F510568F06C
:1020500092C0DCC05F3FECF3983EDCF38695779549
:102060006795B795F7959F5FC9F7880F911D96956E
:10207000879597F90895E1E0660F771F881FBB1FCA
:10208000621773078407BA0720F0621B730B840B77
:10209000BA0BEE1F88F7E095089504D06894B1114B
:1020A000B5C0089598D088F09F5790F0B92F992720
:1020B000B751A0F0D1F0660F771F881F991F1AF053
:1020C000BA95C9F712C0B13081F09FD0B1E0089540
:1020D0009CC0672F782F8827B85F39F0B93FCCF3C1
:1020E000869577956795B395D9F73EF49095809549
:1020F000709561957F4F8F4F9F4F0895E89409C069
:1021000097FB3EF490958095709561957F4F8F4F2A
:102110009F4F9923A9F0F92F96E9BB279395F69540
:10212000879577956795B795F111F8CFFAF4BB0FBE
:1021300011F460FF1BC06F5F7F4F8F4F9F4F16C022
:10214000882311F096E911C0772321F09EE8872FAC
:10215000762F05C0662371F096E8862F70E060E068
:102160002AF09A95660F771F881FDAF7880F9695E1
:10217000879597F9089597F99F6780E870E060E088
:1021800008959FEF80EC089500240A941616170610
:1021900018060906089500240A9412161306140658
:1021A00005060895092E0394000C11F4882352F0BB
:1021B000BB0F40F4BF2B11F460FF04C06F5F7F4F73
:1021C0008F4F9F4F089557FD9058440F551F59F05A
:1021D0005F3F71F04795880F97FB991F61F09F3F14
:1021E00079F087950895121613061406551FF2CF3D
:1021F0004695F1DF08C0161617061806991FF1CF8D
:1022000086957105610508940895E894BB276627B3
:102210007727CB0197F9089566D008F48FEF0895DA
:102220000BD0C0CFB1DF28F0B6DF18F0952309F04E
:10223000A2CFA7CF1124EACFC6DFA0F3959FD1F399
:10224000950F50E0551F629FF001729FBB27F00D64
:10225000B11D639FAA27F00DB11DAA1F649F6627B9
:10226000B00DA11D661F829F2227B00DA11D621F08
:10227000739FB00DA11D621F839FA00D611D221FC2
:10228000749F3327A00D611D231F849F600D211DA6
:10229000822F762F6A2F11249F5750408AF0E1F049
:1022A00088234AF0EE0FFF1FBB1F661F771F881F92
:1022B00091505040A9F79E3F510570F05CCFA6CFDA
:1022C0005F3FECF3983EDCF3869577956795B7957D
:1022D000F795E7959F5FC1F7FE2B880F911D9695A7
:1022E000879597F90895990F0008550FAA0BE0E814
:1022F000FEEF16161706E807F907C0F012161306C8
:10230000E407F50798F0621B730B840B950B39F407
:102310000A2661F0232B242B252B21F408950A266D
:1023200009F4A140A6958FEF811D811D08958F921C
:102330009F92AF92BF92CF92DF92EF92FF92CF9394
:10234000DF93EC01688179818A819B816115710538
:102350008105910521F464E279ED8BE597E02DE1AB
:1023600033EF41E050E00E940B1249015A019B01FA
:10237000AC01A7EAB1E40E942A126B017C01ACEE29
:10238000B4EFA50194010E943812C60ED71EE81EB4
:10239000F91EF7FE06C081E0C81AD108E10880E8FE
:1023A000F80AC882D982EA82FB82C6019F77DF9150
:1023B000CF91FF90EF90DF90CF90BF90AF909F9024
:1023C0008F9008950E949711089585E291E00E94F0
:1023D00097110895A0E0B0E0809325019093260125
:1023E000A0932701B09328010895F999FECF92BDDB
:1023F00081BDF89A992780B50895262FF999FECFC7
:102400001FBA92BD81BD20BD0FB6F894FA9AF99A11
:102410000FBE01960895052E97FB1EF400940E94AE
:10242000221257FD07D00E943D1207FC03D04EF444
:102430000C94221250954095309521953F4F4F4F67
:102440005F4F089590958095709561957F4F8F4F60
:102450009F4F08950E945D0FA59F900DB49F900D12
:10246000A49F800D911D11240895B7FF0C942A128A
:102470000E942A12821B930B0895A1E21A2EAA1B16
:10248000BB1BFD010DC0AA1FBB1FEE1FFF1FA21724
:10249000B307E407F50720F0A21BB30BE40BF50B21
:1024A000661F771F881F991F1A9469F760957095AA
:1024B000809590959B01AC01BD01CF010895F894E2
:0224C000FFCF4C
:1024C200030001000100010001000100640064003A
:1024D200640064006400640064006400FF00AABF3A
:0A24E20005BC05BB05010000000069
:00000001FF
