:100000000C9434000C9446000C9446000C9446006A
:100010000C9446000C9446000C9446000C94460048
:100020000C9446000C9446000C9446000C94460038
:100030000C9446000C9446000C9446000C94460028
:100040000C9446000C9446000C9448000C94460016
:100050000C9446000C9446000C9446000C94460008
:100060000C9446000C94460011241FBECFEFD8E03C
:10007000DEBFCDBF22E0A0E0B1E001C01D92A03202
:10008000B207E1F70E9462010C9464030C94000033
:100090001F920F920FB60F9211240F931F932F935D
:1000A0003F934F935F936F937F938F939F93AF9300
:1000B000BF93CF93DF93EF93FF938091C60060913E
:1000C0000401E62FF0E0EB5FFE4F908120910301E9
:1000D000808328272927209303016F5F6438F8F471
:1000E00060930401862F90E0FC01EB5FFE4F3081AE
:1000F000353501F1FF91EF91DF91CF91BF91AF9134
:100100009F918F917F916F915F914F913F912F912F
:100110001F910F910F900FBE0F901F901895109286
:10012000040180E090E060E0FC01EB5FFE4F308175
:10013000353501F72111DECF04E810E0E801C81BD6
:10014000D90B70E06B5F7E4FAE0188E991E00E94B1
:100150005B03C438D10581F0CE0188569E4F9E01C5
:100160002F5F3F4F2538310578F4A8014C1B5D0BFC
:1001700065E071E00E945B0381E080930201809161
:10018000990180939701B6CF41E050E0F1CFFC0197
:100190002AE08FEF9FEF31918327082E8295807F91
:1001A0008025092E982F82958F700826869598278E
:1001B0008927880F880F880F8025215061F70895BF
:1001C0000FB6A4B1209101012A2B24B921E030916E
:1001D0000101203029F0000025B1232B25B904C0EE
:1001E00000000000000000C000000000000030958A
:1001F00025B1232325B92EEA2A95F1F72BEE30B746
:1002000035FF0AC0A4B930910101309525B12323EF
:1002100025B90FBE80E0089500002A9581F721E0FE
:1002200030910101203029F0000025B1232B25B9A0
:1002300004C000000000000000C00000000000003A
:10024000309525B1232325B9000024E52A95F1F73F
:10025000FC018CE0619170E0660F771F6160726055
:100260009AE041E050E09A0126233723232B309176
:100270000101203029F0000025B1232B25B904C04D
:1002800000000000000000C00000000000003095E9
:1002900025B1232325B9000021E52A95F1F7440F64
:1002A000551F9A9501F78A95A9F620B7206120BFBE
:1002B000A4B930910101309525B1232325B90FBE92
:1002C00081E00895F894219A259A2D98299880B76D
:1002D000806880BF8CE090E09093C5008093C4005C
:1002E0008091C0008D7F8093C0008091C2008660A5
:1002F0008093C2008091C10088698093C100789486
:1003000082E0809301014BE8842E41E0942E90928C
:100310008A018092890190921F0280921E0290921F
:100320001D0280921C0285E02D9A2FEF31EE94E0A1
:10033000215030409040E1F700C000002D98EFEFD1
:10034000F1EE24E0E150F0402040E1F700C0000071
:10035000815051F78AE0B82ECC24C39498E0F92E4E
:1003600021E8D22E36E0E32E809102018823E1F3CA
:100370001092020180919701833009F4A1C008F422
:100380004CC0853009F454C108F4F1C0863061F7DF
:10039000E0911C02F0911D0280919A018083E0910E
:1003A0001C02F0911D0280919B018183E0911C024F
:1003B000F0911D0280919C01828380919D01838335
:1003C00080919E01848380919F0185838091A0010B
:1003D00086838091A10187838091A201808780918B
:1003E000A30181878BE891E00E94C700909396015A
:1003F000809395018BE891E00E94E0002D9A8FE6B2
:1004000097E10197F1F700C000002D98EFE6F7E1C2
:100410003197F1F700C00000A7CF813009F49BC0ED
:10042000823009F0A1CFE0911C02F0911D02809171
:100430009A018083E0911C02F0911D0280919B0142
:100440008183E0911C02F0911D0280919C018283C6
:1004500080919D01838380919E01848380919F017F
:1004600085838091A00186838091A10187838091FB
:10047000A20180878091A30181878BE891E00E948F
:10048000C70090939601809395018091020181119C
:100490006BCF8BE891E00E94E0002D9A8FE697E108
:1004A0000197F1F700C000002D98EFE6F7E13197D2
:1004B000F1F700C0000080910201882351F354CF6E
:1004C000E0911C02F0911D0280919A018083E091DD
:1004D0001C02F0911D0280919B018183E0911C021E
:1004E000F0911D0280919C01828380919D01838304
:1004F00080919E01848380919F0185838091A001DA
:1005000086838091A10187838091A2018087809159
:10051000A30181878091A40182878091A5018387AF
:1005200080910201811120CF8BE891E00E94E000D0
:100530002D9A8FE697E10197F1F700C000002D9802
:10054000EFE6F7E13197F1F700C00000809102017A
:10055000882351F309CF81E090910001911180E04F
:1005600080930001882309F4A4C02D9AFDCED09277
:100570009401E0918901F0918A0180919A01808330
:100580001086F89480910201811142C0A0918901E6
:10059000B0918A0111961C9211971296EBE9F1E045
:1005A0008E2D01900D928A95E1F78BE891E00E94E3
:1005B000C70090939601809395018BE891E00E948B
:1005C000E000C1EAD1E016E080910201811120C073
:1005D000A0918901B0918A01812F869511968C9303
:1005E00011971296FE018E2D01900D928A95E1F7DA
:1005F0008BE891E00E94C70090939601809395014B
:100600008BE891E00E94E0001A5F26961438E1F62C
:1006100078942D9A8FE19EE40197F1F700C00000D5
:100620002D98EFE1FEE43197F1F700C000009CCE79
:10063000F4012B2D11922A95E9F7C0929401F894B8
:10064000CAE9D1E0A0911E02B0911F02FE018F2DD8
:1006500001900D928A95E1F7E0911E02F0911F0240
:1006600080819181892B79F482819381892B59F43E
:1006700084819581892B39F48681811104C0878119
:100680009085892B29F28BE891E00E94C700909316
:100690009601809395018BE891E00E94E000F5E8D7
:1006A000FA95F1F70000289622E0CA31D20751F6F8
:1006B000AFCF2D9859CEFB01DC0102C001900D9205
:0C06C00041505040D8F70895F894FFCF47
:00000001FF
